:100000000C9437000C945F000C945F000C945F001C
:100010000C945F000C945F000C945F000C945F00E4
:100020000C945F000C945F000C945F000C945F00D4
:100030000C945F000C945F000C945F000C945F00C4
:100040000C942C030C945F000C947C010C94AD0177
:100050000C945F000C945F000C945F000C945F00A4
:100060000C945F000C945F008C00720291001124CC
:100070001FBECFEFD8E0DEBFCDBF11E0A0E0B1E002
:10008000ECE7FAE002C005900D92A436B107D9F76B
:1000900012E0A4E6B1E001C01D92A932B107E1F778
:1000A00010E0CCE6D0E004C02297FE010E94FA03E3
:1000B000C836D107C9F70E941A030C9431050C9475
:1000C00000008130910529F484E691E00E94A400AB
:1000D0000895009721F484E691E00E949600089527
:1000E0008DEF91E040E855E260E070E00E94F4019D
:1000F00084E691E00E94BF00882331F48DEF91E007
:1001000060E071E00E940703089584E691E067E1F2
:1001100070E00E94C100089581E090E00E946100BB
:10012000089580E090E00E946100089520E531E0AC
:10013000FC0131832083089520E531E0FC01318307
:1001400020830E9429030895FC0180E591E09183BA
:100150008083168280E291E09383828382E090E044
:100160009583848381E491E090878783128611864A
:100170001486138681E090E096878587089580E055
:10018000089580E00895FC0184859585FC01E05C7C
:10019000FF4F208131818E5B9F4FFC0180819181D7
:1001A000281B390B2F733070C9010895FC01848519
:1001B0009585FC01E05CFF4F40815181FC01EE5BC5
:1001C000FF4F208131814217530741F00190F081A8
:1001D000E02DE80FF91F208130E002C02FEF3FEF44
:1001E000C9010895FC0184859585FC01E05CFF4F01
:1001F00040815181FC01EE5BFF4F2081318142172C
:10020000530771F0A081B181A80FB91F2C91808193
:10021000918101968F7390709183808330E002C04A
:100220002FEF3FEFC9010895DC011E968D919C913F
:100230001F97FC01E05CFF4F8E5B9F4F4081518117
:10024000DC012D913C91119742175307B9F708959E
:100250001F93FC01162F26853785D901A05CBF4F5F
:100260008D919C91019660E470E00E94AF03D901EA
:10027000AE5BBF4F4D915C91119784179507D1F3F9
:10028000D901A05CBF4F0D90BC91A02DA20FB31F50
:100290001C93A685B785A05CBF4F11969C938E9347
:1002A000A689B7892C9181E090E0058C02C0880F67
:1002B000991F0A94E2F7282B2C9381E090E01F917C
:1002C0000895FB01E05CFF4F208131812F5F3F4F9C
:1002D0002F733070DB01AE5BBF4F4D915C91119776
:1002E0002417350739F0A081B181A60FB71F8C9371
:1002F00031832083089508951F920F920FB60F92B5
:1003000011242F933F934F935F936F937F938F931A
:100310009F93AF93BF93EF93FF938091C60065E7E0
:1003200071E00E946101FF91EF91BF91AF919F91A8
:100330008F917F916F915F914F913F912F910F908E
:100340000FBE0F901F9018958DEF91E00E94C30093
:10035000009711F00E947B0108951F920F920FB633
:100360000F9211242F933F935F936F937F938F93FB
:100370009F93AF93BF93EF93FF932091F901309137
:10038000FA018091FB019091FC012817390731F4A3
:100390008091C1008F7D8093C10016C0E091FB0168
:1003A000F091FC01E754FE4F20818091FB01909178
:1003B000FC01019660E470E00E94AF039093FC01A1
:1003C0008093FB012093C600FF91EF91BF91AF9105
:1003D0009F918F917F916F915F913F912F910F909E
:1003E0000FBE0F901F901895DF92EF92FF920F9320
:1003F0001F93CF93DF93EC017A018B01DD24D3941B
:10040000403081EE580780E0680780E0780749F4C3
:10041000DD24EC89FD89108260E874E88EE190E0CB
:100420000FC0EC89FD8981E090E00E8C02C0880F3E
:10043000991F0A94E2F7808360E079E08DE390E011
:10044000A80197010E94C203215030404040504013
:10045000569547953795279580E12030380710F05D
:10046000DD20B1F6E889F9893083EA89FB892083A8
:10047000EE89FF89408181E090E09C010A8C02C0F6
:10048000220F331F0A94E2F7422B4083EE89FF8943
:1004900040819C010B8C02C0220F331F0A94E2F7AB
:1004A000422B4083EE89FF8940819C010C8C02C065
:1004B000220F331F0A94E2F7422B4083EE89FF8913
:1004C00020810D8C02C0880F991F0A94E2F7809555
:1004D00082238083DF91CF911F910F91FF90EF9046
:1004E000DF900895109200021092FF0188EE93E0D1
:1004F000A0E0B0E08093010290930202A093030277
:10050000B0930402EFEFF1E088E591E092938293DB
:1005100085E791E09587848789EB91E097878687C7
:1005200085EC90E0918B808B84EC90E0938B828BB8
:1005300080EC90E0958B848B81EC90E0978B868BA0
:1005400086EC90E0918F808F84E0828F83E0838FB0
:1005500087E0848F85E0858F81E0868F0895CF9234
:10056000DF92EF92FF920F931F93CF93DF936C0173
:100570007B018A01C0E0D0E00FC0D7016D917D0101
:10058000D601ED91FC910190F081E02DC601099515
:10059000C80FD91F015010400115110571F7CE0188
:1005A000DF91CF911F910F91FF90EF90DF90CF904F
:1005B0000895DB010D900020E9F7AD014150504056
:1005C000461B570BDC01ED91FC910280F381E02D7D
:1005D00009950895DC01ED91FC910190F081E02DE9
:1005E000099508950F931F93CF93DF93EC016DE06E
:1005F0000E94EA028C01CE016AE00E94EA02080F22
:10060000191FC801DF91CF911F910F9108950F938A
:100610001F93CF93DF93EC010E94D9028C01CE018E
:100620000E94F202080F191FC801DF91CF911F919C
:100630000F910895CF93DF930E9474030E9470007E
:10064000C4EAD1E00E9485002097E1F30E94A40152
:10065000F9CF0E94980408951F920F920FB60F923F
:1006600011242F933F938F939F93AF93BF938091C8
:10067000200290912102A0912202B0912302309198
:1006800024020196A11DB11D232F2D5F2D3720F0CF
:100690002D570196A11DB11D2093240280932002A5
:1006A00090932102A0932202B093230280911C0216
:1006B00090911D02A0911E02B0911F020196A11DF2
:1006C000B11D80931C0290931D02A0931E02B09353
:1006D0001F02BF91AF919F918F913F912F910F90EA
:1006E0000FBE0F901F901895789484B5826084BDDA
:1006F00084B5816084BD85B5826085BD85B5816026
:1007000085BDEEE6F0E0808181608083E1E8F0E085
:100710001082808182608083808181608083E0E8B4
:10072000F0E0808181608083E1EBF0E08081846093
:100730008083E0EBF0E0808181608083EAE7F0E095
:1007400080818460808380818260808380818160F9
:1007500080838081806880831092C100089597FB18
:10076000092E07260AD077FD04D02ED006D000200F
:100770001AF4709561957F4F0895F6F790958195DD
:100780009F4F0895A1E21A2EAA1BBB1BFD010DC0AD
:10079000AA1FBB1FEE1FFF1FA217B307E407F50731
:1007A00020F0A21BB30BE40BF50B661F771F881F0D
:1007B000991F1A9469F760957095809590959B01A3
:1007C000AC01BD01CF010895AA1BBB1B51E107C0BD
:1007D000AA1FBB1FA617B70710F0A61BB70B881FD1
:1007E000991F5A95A9F780959095BC01CD01089560
:1007F000EE0FFF1F0590F491E02D0994CF93DF9346
:100800008230910510F482E090E0E0912702F091AF
:10081000280240E050E020E030E026C06081718195
:1008200068177907E0F06817790781F4828193816E
:100830002115310531F0D90113969C938E931297AF
:100840002BC0909328028093270226C041155105A2
:1008500019F06417750718F4AB01E901DF019F0176
:1008600072816381E72FF62F3097C1F6411551054C
:1008700001F1481B590B4430510580F412968D91BB
:100880009C911397209719F09B838A8304C09093BF
:10089000280280932702FD01329646C0FD01E40F35
:1008A000F51F819391934250504011965C934E9363
:1008B0003BC020912502309126022115310541F4DB
:1008C000209148013091490130932602209325025E
:1008D00020914A0130914B012115310541F42DB78A
:1008E0003EB74091460150914701241B350BE091E2
:1008F0002502F0912602E217F307A0F42E1B3F0B0E
:100900002817390778F0AC014E5F5F4F2417350781
:1009100048F04E0F5F1F50932602409325028193AB
:10092000919302C0E0E0F0E0CF01DF91CF91089514
:10093000CF93DF93009709F491C0FC0132971382A3
:10094000128260912702709128026115710581F46D
:1009500020813181280F391F809125029091260234
:100960008217930799F5F0932602E093250276C04B
:10097000DB0180E090E002C0CD01D901AE17BF07D6
:1009800048F412962D913C91139721153105A1F74A
:10099000CD0121C0B383A283EF01499159919E01FA
:1009A000240F351FA217B30779F42D913C911197AD
:1009B000240F351F2E5F3F4F3183208312962D91D8
:1009C0003C91139733832283009729F4F0932802F4
:1009D000E093270243C0DC011396FC93EE93129739
:1009E0004D915D91A40FB51FEA17FB0769F42081B3
:1009F0003181240F351F2E5F3F4FEC01398328834F
:100A0000228133813B832A83E0E0F0E002C0FB01D6
:100A1000BC01DB0112968D919C9113970097B9F759
:100A20009B012E5F3F4F8D919C911197820F931FD9
:100A300040912502509126024817590779F43097C2
:100A400029F4109228021092270202C01382128207
:100A5000225030403093260220932502DF91CF911F
:100A6000089510E0CCE6D0E004C0FE010E94FA0335
:0C0A70002296CE36D107C9F7F894FFCFCC
:100A7C00636F756C64206E6F742061636365737350
:100A8C002072656D6F7465207365727665722100D6
:100A9C00383935303162343338373931653238666C
:100AAC0037346332313033356138386666666432D8
:100ABC000076312E300020002902000000000000DA
:100ACC0096009C00000000002801AF02C300F20059
:040ADC00D60014012B
:00000001FF
