:100000000C946D000C9495000C9495000C94950044
:100010000C9495000C9495000C9495000C9495000C
:100020000C9495000C9495000C9495000C949500FC
:100030000C9495000C9495000C9495000C949500EC
:100040000C948C170C9495000C94C6130C94F71315
:100050000C9495000C9495000C9495000C949500CC
:100060000C9495000C9495000000000024002700DB
:100070002A0000000000250028002B0000000000DE
:1000800023002600290004040404040404040202DA
:100090000202020203030303030301020408102007
:1000A0004080010204081020010204081020000012
:1000B0000007000201000003040600000000000029
:1000C00000007D09AE0C690D890F940F6211971124
:1000D000BA120213BC1472159C1111241FBECFEF6B
:1000E000D8E0DEBFCDBF12E0A0E0B1E0ECE1F9E383
:1000F00002C005900D92AA33B107D9F713E0AAE325
:10010000B2E001C01D92AF34B107E1F710E0C8EDD5
:10011000D0E004C02297FE010E94D619C23CD1074C
:10012000C9F70E9476170C94811C0C9400008DE096
:1001300061E00E94B8188BE061E00E94B8188AE084
:1001400061E00E94B8188DE060E00E94DC188BE04E
:1001500060E00E94DC188AE061E00E94DC188CB547
:1001600080618CBD8CB580648CBD089590E0049650
:10017000982F8827860F971F0E94B403089562E086
:1001800070E00E94B600089563E070E00E94B6003F
:1001900008950F931F93182F68E270E00E94B60035
:1001A000082F812F69E270E00E94B600502F40E0D6
:1001B000282F30E0242B352BC9011F910F91089572
:1001C00090E00496982F8827860F971F642F0E942F
:1001D000FC020895462F62E070E00E94E00008955E
:1001E0000F931F93182F062F472F60E170E00E9496
:1001F000E000812F61E170E0402F0E94E0001F913C
:100200000F9108950F931F93182F062F472F68E221
:1002100070E00E94E000812F69E270E0402F0E94B0
:10022000E0001F910F910895462F60E070E00E945A
:10023000E00008950F931F93182F062F472F64E0B7
:1002400070E00E94E000812F65E070E0402F0E9486
:10025000E0001F910F910895FB01BA0190E0049610
:10026000982F88278E0F9F1FA9010E948103089550
:10027000AB016CE070E024E030E00E942C010895B6
:100280001F93182F8CE392E0612F40E150E00E9411
:100290005605812F6FEF0E94EA001F910895EF929B
:1002A000FF921F93DF93CF9300D0CDB7DEB7182F07
:1002B0007A01862F8150853040F5812F2A8369830A
:1002C0000E9440012A816981622B812F0E941401C2
:1002D000E114F10419F0812FB7010CC020913A020A
:1002E00030913B022F5F3F4F30933B0220933A0205
:1002F000812FB9010E941A018CE392E0612F41E045
:1003000050E00E94560581E001C080E00F900F9000
:10031000CF91DF911F91FF90EF9008951F93CF939E
:10032000DF93182FFB01EA0180818F3F51F4818117
:100330008F3F91F482818F3F79F483818F3F61F405
:100340001EC0882349F48181882331F48281882367
:1003500019F48381882399F0209789F0812FBF01B8
:100360000E943801812FBE010E94F0008CE392E0D0
:10037000612F44E050E00E94560581E001C080E01A
:10038000DF91CF911F910895682F8CE392E048E0B0
:1003900050E00E9456050895CF92DF92EF92FF92AF
:1003A0001F93CF93DF93182F7B01C42EE6016E01BC
:1003B000D52EE60138E0C130D30710F0C0E0D8E018
:1003C0008CE392E0612F0E9498046C01812F0E94BF
:1003D000C400873111F08C3121F4CC16DD0680F396
:1003E00002C0C0E0D0E08CE392E0612FA7019E0143
:1003F0000E9440048CE392E0612F40E250E00E94B2
:1004000056050BC0812F0E94C400882331F4812F30
:100410000E944001C0E0D0E009C0812F0E94BF00CF
:1004200084FFF0CF812F60E10E94EA00CE01DF91CE
:10043000CF911F91FF90EF90DF90CF900895CF92D2
:10044000DF92EF92FF920F931F93CF93DF93F82EDB
:100450006B018A018CE392E06F2D0E946304EC0132
:10046000009761F48F2D0E94C400843101F188232C
:10047000F1F08C31E1F0CFEFDFEF07C0081719077B
:1004800020F40115110589F0E8018CE392E06F2D4D
:10049000A6019E0100E00E9425058CE392E06F2DED
:1004A00040E450E00E94560502C0C0E0D0E0CE011A
:1004B000DF91CF911F910F91FF90EF90DF90CF9040
:1004C00008950F93282FAB018CE392E0622F21E077
:1004D00030E001E00E94250581E090E00F91089551
:1004E0008F929F92AF92BF92CF92DF92EF92FF9244
:1004F0000F931F93CF93DF93182F6B015A01E901DC
:100500008CE392E0612F0E9498048C179D0738F4C9
:100510008CE392E0612F0E9498047C0101C07E016F
:100520008CE392E0612FA601950187010E94F00300
:10053000C701DF91CF911F910F91FF90EF90DF9056
:10054000CF90BF90AF909F908F9008951F93CF93BF
:10055000DF93182FFB01EA018081882349F4818110
:10056000882331F48281882319F48381882369F0F8
:10057000209759F0812FBF010E943801812FBE01C1
:100580000E94F00021E030E002C020E030E0C9012C
:10059000DF91CF911F9108951F93182F8CE392E064
:1005A000612F40E250E00E9456050CC0812F0E944E
:1005B000BF0083FF07C0812F68E10E94EA0020E0AE
:1005C00030E00BC0812F0E94BF0084FFEFCF812F4E
:1005D00060E10E94EA0021E030E0C9011F91089526
:1005E0008EBD0DB407FEFDCF8EB50895229A0895F5
:1005F0002A9808952A9A08951F93DF93CF9300D0E5
:10060000CDB7DEB7182F6A8399830E94F80280EF76
:100610000E94F0029981892F0E94F002812F0E948E
:10062000F0026A81862F0E94F0020E94FA0281E0A5
:100630000F900F90CF91DF911F910895462F61E0A9
:1006400070E00E94E00008950F931F93182F062F6B
:10065000472F64E270E00E94E000812F65E270E0C5
:10066000402F0E94E0001F910F910895682F80E0B5
:1006700090E00E94FC020895682F8BE190E00E94B8
:10068000FC020895682F8AE190E00E94FC02089520
:10069000CF93DF93EC016CE271E080E090E00E9488
:1006A00008180E9497000E94F60280E80E94360314
:1006B00085E50E943C0385E50E94420380E090E4CA
:1006C0009983888380E090E69987888780E098E422
:1006D0009B838A8380E098E69B878A8780E090E509
:1006E0009D838C8380E090E79D878C8780E098E5F0
:1006F0009F838E8380E098E79F878E87DF91CF91DD
:100700000895CF92DF92EF92FF920F931F93CF93B2
:10071000DF936C01EA01E62EF72E00E010E017C02F
:100720000E94F80280EF0E94F0028D2D0E94F002DC
:100730008C2D0E94F0020894C11CD11CF7018191FC
:100740007F010E94F0020E94FA020F5F1F4F0C17F8
:100750001D0730F3CE01DF91CF911F910F91FF90D4
:10076000EF90DF90CF9008951F93DF93CF930F9278
:10077000CDB7DEB7182F99830E94F8028FE00E9450
:10078000F0029981892F0E94F002812F0E94F002CD
:1007900080E00E94F00289830E94FA0289810F9012
:1007A000CF91DF911F91089561E070E00E94B60043
:1007B00008950F931F93182F64E270E00E94B60013
:1007C000082F812F65E270E00E94B600502F40E0B4
:1007D000282F30E0242B352BC9011F910F9108954C
:1007E0009F92AF92BF92CF92DF92EF92FF920F93C0
:1007F0001F93CF93DF937C01962E6A015901862FB8
:100800000E94D903C80ED91E96013770892D90E039
:10081000880F991FE80EF91EF70180819181820FE0
:10082000931FA901400F511FF8E041305F0790F07E
:10083000C0E0D8E0C21BD30BB501AE010E9481031A
:10084000B5016C0F7D1FA8014C1B5D0BF70180816A
:10085000918102C0B501A8010E948103B601600F19
:10086000711F892D0E942403DF91CF911F910F9159
:10087000FF90EF90DF90CF90BF90AF909F90089542
:100880000F931F93FA01890140E050E09F010E94FD
:10089000F0031F910F9108950F931F93182F66E295
:1008A00070E00E94B600082F812F67E270E00E947E
:1008B000B600502F40E0282F30E0242B352BC90103
:1008C0001F910F910895EF92FF920F931F93CF9373
:1008D000DF93F62EC0E0D0E08F2D0E944C048C01F7
:1008E000009721F08F2D0E944C04EC01C017D10716
:1008F00099F7CE01DF91CF911F910F91FF90EF906B
:1009000008950F931F93182F60E270E00E94B600C5
:10091000082F812F61E270E00E94B600502F40E066
:10092000282F30E0242B352BC9011F910F910895FA
:10093000EF92FF920F931F93CF93DF93F62EC0E0B9
:10094000D0E08F2D0E9481048C01009721F08F2D23
:100950000E948104EC01C017D10799F7CE01DF9105
:10096000CF911F910F91FF90EF900895CF92DF925A
:10097000EF92FF920F931F93CF93DF936C01EA01E5
:10098000E62EF72E00E010E018C00E94F8028FE07B
:100990000E94F0028D2D0E94F0028C2D0E94F00228
:1009A0000894C11CD11C80E00E94F002F7018193E1
:1009B0007F010E94FA020F5F1F4F0C171D0728F3DB
:1009C000CE01DF91CF911F910F91FF90EF90DF90BB
:1009D000CF900895CF92DF92EF92FF920F931F93E3
:1009E000CF93DF93690178015770C62FD0E024962A
:1009F000CC0FDD1FC80FD91F88819981840F951FE7
:100A00009801240F351F68E02130360788F000E098
:100A100018E0041B150BB601A8010E94B604B6012C
:100A2000600F711FA701401B510B8881998102C083
:100A3000B601A8010E94B604DF91CF911F910F91DA
:100A4000FF90EF90DF90CF9008958F929F92AF929A
:100A5000BF92CF92DF92EF92FF920F931F93CF93AB
:100A6000DF935C01E62E4A016901F02E862F0E9479
:100A7000C900EC01C5016E2DAE01940186010E94F2
:100A8000EA04FF2031F4BE016C0D7D1D8E2D0E9405
:100A90000201DF91CF911F910F91FF90EF90DF90B6
:100AA000CF90BF90AF909F908F9008951F93162F77
:100AB000862F642F0E941E03812F0E94D403882357
:100AC000D9F71F910895FC0127E332E03183208399
:100AD000DB0151962D913D914D915C91549722836C
:100AE00033834483558308954F925F926F927F9230
:100AF0008F929F92AF92BF92CF92DF92EF92FF922E
:100B00000F931F93DF93CF93CDB7DEB7AC970FB69C
:100B1000F894DEBF0FBECDBF7C01562E442E752E3D
:100B2000EDE08E2E912C8C0E9D1E70E2672EF4014E
:100B3000262D11922A95E9F7CE0101966FEF4FEF1E
:100B40002FEF0FEF0E94461587010E5D1F4F87E3C1
:100B500092E098878F838B819C81AD81BE8189874C
:100B60009A87AB87BC87C801BE01695F7F4F43E4AA
:100B700050E00E948710EFEF8F3F9E0709F4E2C01C
:100B800081E08D878E8786E08F87188AF701A480A1
:100B9000B580C680D7808D2D9927AA27BB275A2DCF
:100BA000442733272227822B932BA42BB52B5C2D94
:100BB0004B2D3A2D2227207030705070822B932BB2
:100BC000A42BB52B55274D2D3C2D2B2D207040707F
:100BD0005070822B932BA42BB52BF4018483958327
:100BE000A683B7837D8A4E8A80E890E093878287C8
:100BF000C801B4014CE150E00E946C10F401119264
:100C00006A94E9F728E0622E712C6E0C7F1CD401E7
:100C1000F30186E001900D928150E1F79DE0C92E2D
:100C2000D12CCC0EDD1EC801B60140E150E00E947F
:100C30006C1080E2F60111928A95E9F7AA24BB2490
:100C40008C2CCD2CC801682D7C2D40E250E00E94F8
:100C50006C100894A11CB11CF6E0AF16B10491F71A
:100C600083E68D8792E89E8793E59F87888B85E34F
:100C7000898B81E08A8B5B8A9DE39C8B97E09D8BBF
:100C80008E8BDE015796F30186E001900D92815024
:100C9000E1F78CE08D8F89E08E8F8DE0C82ED12C0E
:100CA000CC0EDD1ECE014F9660E071E00E94431C29
:100CB000F70183858DA384858EA385858FA3C801C5
:100CC000B6014BE150E00E946C10F52DF330F1F4C9
:100CD00082E38D8784E08E87F70196859F879785CD
:100CE000988B9089998B91899A8B96E39B8B8C8BAF
:100CF000828D8D8B838D8E8B848D8F8B858D888F50
:100D0000C801B6014CE050E00E946C1087E38D876B
:100D100086E08E8791E09F8793E0988B898B8FE0A8
:100D20008A8B8AE38B8B8BE38C8B8FEF8D8BC80147
:100D3000BE01635F7F4F49E050E00E946C10C80124
:100D40000E948210AC960FB6F894DEBF0FBECDBFE6
:100D5000CF91DF911F910F91FF90EF90DF90CF9097
:100D6000BF90AF909F908F907F906F905F904F90CB
:100D700008952F923F924F925F926F927F928F923F
:100D80009F92BF92CF92DF92EF92FF920F931F93A9
:100D9000DF93CF93CDB7DEB7E4970FB6F894DEBFFD
:100DA0000FBECDBF4C012A013B0119010E94D4178F
:100DB0006B017C0184010E5D1F4F12C00E94D4178D
:100DC0006C197D098E099F09461657066806790633
:100DD00008F450C162E370E080E090E00E940818DF
:100DE000C8010E941B101816190644F7C801BE015D
:100DF000635F7F4F42E250E00E94FC0F8D8582309E
:100E000009F033C1F40187A990AD8334910509F04D
:100E10002CC129893A894B895C89C52EDD24EE24B1
:100E2000FF24B22FAA2799278827C82AD92AEA2A75
:100E3000FB2AB42FA32F922F882780709070B07058
:100E4000C82AD92AEA2AFB2A232F342F452F5527CF
:100E5000207040705070C22AD32AE42AF52AF1018A
:100E6000C082D182E282F382B401685F7F4FCE01FB
:100E7000899646E050E00E942D1C009799F4F401F9
:100E800080819181A281B381C816D906EA06FB064A
:100E900048F084819581A681B7818C159D05AE05AA
:100EA000BF0528F4C8010E94C10FBB24E5C08D8D89
:100EB0009E8DAF8DB8A1F40186879787A08BB18BEB
:100EC000BEECEB2EF12CC8010E9401100894E10841
:100ED000F108E114F104B9F7BB24C4014E9698ABB4
:100EE0008FA7AAE14A2E512C480C591C1E010894C8
:100EF000211C311CF7E06F2E712C6C0E7D1EF4014D
:100F00007296FAABE9ABC40146969CAB8BABA5C01D
:100F1000C8010E9401108630910509F445C0873050
:100F2000910554F481309105D9F083309105F9F0A1
:100F3000009709F492C086C08633910509F451C028
:100F40008F3F910509F489C08533910509F07AC076
:100F5000C8010E940110C8010E940110B82E7DC076
:100F6000C8010E940110C80169A97AA95FC0C8011F
:100F70000E940110C82EC8016BA97CA944E050E072
:100F80000E94FC0FEE24FF24DD24ECEFFFEFCE0ED9
:100F9000DF1E06C0C8010E9401100894E11CF11C6C
:100FA000EC14FD04BCF359C0C8010E940110E82EE6
:100FB000C8016FA578A944E050E00E94FC0FCC2442
:100FC000DD24FF248CEF9FEFE80EF91E06C0C80158
:100FD0000E9401100894C11CD11CCE14DF04BCF384
:100FE0003CC0C8010E940110E82EF401828D938D4F
:100FF000A48DB58D0097A105B105B1F0C101B20175
:101000000E945215C301B8010E9463052B813C81E7
:101010004D815E81F30182819381A481B58128177E
:1010200039074A075B0759F4C801B20144E050E0B0
:101030000E94FC0F12C0C8010E940110EA94EE2029
:10104000D1F70BC0C8010E940110E82E04C0C801EE
:101050000E940110EA94EE20D1F7C8010E94A51069
:10106000181619060CF454CF01C0BB24C8010E9405
:10107000C10F02C0BB24BA948B2DE4960FB6F8942E
:10108000DEBF0FBECDBFCF91DF911F910F91FF90BB
:10109000EF90DF90CF90BF909F908F907F906F9058
:1010A0005F904F903F902F9008952F923F924F92D4
:1010B0005F926F927F928F929F92AF92BF92CF92E8
:1010C000DF92EF92FF920F931F93DF93CF93CDB7F1
:1010D000DEB72A970FB6F894DEBF0FBECDBF6C0106
:1010E0002F83388749875A871701280108962AE1F4
:1010F000DC011D922A95E9F7FC01862F972FDC0170
:1011000086E00D9001928150E1F761E070E080E0AF
:1011100090E020ED37E040E050E00E94CB16F60171
:1011200064837583868397836083718382839383CB
:1011300096012E5D3F4F3E832D83C90164E470E02C
:101140000E94AC10882309F487C00E94D4174B0179
:101150005C01EE24FF2410E03E010894611C711C28
:101160001123F9F4F60184819581A681B781019656
:10117000A11DB11D84839583A683B7830E94D417D4
:10118000681979098A099B0928EE33E040E050E0AC
:101190000E948319C60161E0A9010E94740511E053
:1011A00036C0113021F5C601B201A10193010E94A0
:1011B000B906823049F589819A81AB81BC81F601FB
:1011C00084839583A683B7830E94D417681979090D
:1011D0008A099B0928EE33E040E050E00E94831921
:1011E000C60163E0A9010E94740512E010C012302C
:1011F00071F4C601B201A10193010E94B9068530C4
:1012000009F446C0863011F08F3F09F410E0F1E098
:10121000EF16F10409F441C00E94D4176819790946
:101220008A099B092F81388549855A8526173707F2
:101230004807590790F58D819E810E949010F60114
:1012400084819581A681B7810196A11DB11D8483FA
:101250009583A683B78302C0EE24FF24C7012A9694
:101260000FB6F894DEBF0FBECDBFCF91DF911F91B7
:101270000F91FF90EF90DF90CF90BF90AF909F9035
:101280008F907F906F905F904F903F902F90089538
:10129000E1E0EE2EF12C13E0BACF133009F060CF6D
:1012A000CACFCF93DF93EC01625F7F4F0E9452154C
:1012B000CE01DF91CF910895CF93DF93EC016E5E65
:1012C0007F4F0E945215CE01DF91CF910895CF93A9
:1012D000DF93EC016A5E7F4F0E945215CE01DF91D1
:1012E000CF910895CF93DF93EC01625E7F4F0E9410
:1012F0005215CE01DF91CF9108950F938CE492E0C7
:1013000060E040E020E000E00E9446150F91089563
:10131000FC01DB0112962D913D914D915C91159749
:101320002283338344835583178216820895E62FE0
:10133000F72FDF018D918823E9F780E090E020E02E
:1013400030E020C08F3F910509F09CF5DA01A20F33
:10135000B31F12968C9312972F5F3F4F80E090E05F
:1013600011C0BC01660F771FB3E0880F991FBA95B3
:10137000E1F7680F791F8A2F992787FD9095C0970D
:10138000860F971FA191AA2331F0243031051CF458
:10139000AE3239F7D7CF8F3F910509F054F424309E
:1013A00031053CF4240F351FF901828321E030E040
:1013B00002C020E030E0C90108956F927F928F92C1
:1013C0009F92AF92BF92CF92DF92EF92FF920F93D4
:1013D0001F93DF93CF9300D00F92CDB7DEB77C0180
:1013E000A62E872E0E94D417F70177836683870184
:1013F000085F1F4FB7016A5F7F4FC80142E050E0AE
:101400000E946C1081E090E09B838A8392E0E92E39
:10141000F12CEC0EFD1EC801B70142E050E00E9425
:101420006C1080E091E09B838A83C801B70142E0A1
:1014300050E00E946C101B821A82C801B70142E082
:1014400050E00E946C10C801B70142E050E00E94D9
:101450006C10C801B70142E050E00E946C10CA2C29
:10146000D82CB82C3E010894611C711C1FC0F501DA
:101470006F018191882311F08E32D1F746018A18CD
:101480009B081814190474F48C2D8A198983C801D7
:10149000B30141E050E00E946C10C801B501A40105
:1014A0000E946C1056010894A11CB11CF6018081A9
:1014B0008823E9F61982C801BE016F5F7F4F41E0C2
:1014C00050E00E946C10C12C81E0D82EDB82CA82D1
:1014D000C801B70142E050E00E946C10DB82CA8272
:1014E000C801B70142E050E00E946C1081E090E03A
:1014F0000F900F900F90CF91DF911F910F91FF9060
:10150000EF90DF90CF90BF90AF909F908F907F90A3
:101510006F9008952F923F924F925F926F927F92B9
:101520008F929F92AF92BF92CF92DF92EF92FF92F3
:101530000F931F93DF93CF93CDB7DEB76B970FB6A3
:10154000F894DEBF0FBECDBF6C014B015B8F4A8F9D
:101550000E94D4172B013C0158E0E52EF12CEC0C35
:10156000FD1CAA24BB2412C00E94D417641975095B
:101570008609970986169706A806B90608F427C1B2
:1015800062E370E080E090E00E940818C7010E94CA
:101590001B101816190644F7F60182809380A48068
:1015A000B5808E01085F1F4FC801B7010E94630517
:1015B000F80182819381A481B58188169906AA06D3
:1015C000BB0609F007C1F601858D968D853391051F
:1015D00009F000C11EC18E01025F1F4FC701B80193
:1015E0004CE050E00E94FC0FF80182819381982723
:1015F000892798279B838A83F601468157812E8508
:101600003F854217530711F497FD06C0C7010E949A
:10161000C10F2CEF3FEFE3C08F709270009731F055
:10162000C7010E94C10F2BEF3FEFD9C0F801268000
:1016300037803224232432242114310441F0CC2475
:10164000DD2458014E010894811C911C29C0C7015A
:101650000E94C10F2AEF3FEFC2C0C701B40141E0B1
:1016600050E00E94FC0F8981882321F409C0C70142
:101670000E9401108981982F915099838823B9F78E
:101680008981882351F700E010E0C7010E94011012
:101690000F5F1F4F04301105C1F70894C11CD11C06
:1016A000F50184819581982789279827C816D9063E
:1016B000A0F2CC24DD244E010894811C911C44E04E
:1016C000A42EB12CAC0EBD1E36E0432E512C4C0E78
:1016D0005D1E22E0622E712C6C0E7D1EC701B401CE
:1016E00041E050E00E94FC0F8981982F907C69F4C2
:1016F000882321F40EC0C7010E9401108981982F10
:10170000915099838823B9F704C0C7010E94011042
:1017100019828981882311F7C701B50142E050E0A1
:101720000E94FC0FC701B20142E050E00E94FC0F92
:1017300004E010E0C7010E94011001501040D1F7F1
:10174000C701B30142E050E00E94FC0F8C819D81F3
:10175000F1E080309F0719F000E010E023C08E8197
:101760009F8121E080309207B9F78A819B81E4E074
:1017700080309E0731F0C7010E94C10F27EF3FEF75
:101780002EC06A8D7B8D6E5F7F4FC70144E050E0B5
:101790000E94FC0F21E030E022C0C7010E9401102E
:1017A0000F5F1F4F8A819B819827892798270817E9
:1017B000190798F30894C11CD11CC214D30408F46F
:1017C0008DCFC7010E94C10F26EF3FEF08C02FEF5A
:1017D0003FEF05C02EEF3FEF02C02DEF3FEFC901F5
:1017E0006B960FB6F894DEBF0FBECDBFCF91DF91E1
:1017F0001F910F91FF90EF90DF90CF90BF90AF902F
:101800009F908F907F906F905F904F903F902F9020
:101810000895C7010E94A5108C309105F4F2DBCE2B
:10182000AF92BF92CF92DF92EF92FF920F931F93EE
:10183000DF93CF93CDB7DEB728970FB6F894DEBF0E
:101840000FBECDBF8C016B015A010E949709009712
:1018500009F06AC0F8012281338144815581809169
:10186000540290915502A0915602B0915702281748
:1018700039074A075B0709F45AC068E0E62EF12CE5
:10188000E00EF11E0E94D4176F70707060507C4F94
:10189000C7010E94AC10813009F04CC087E392E090
:1018A0009A838983F80182819381A481B5818B8396
:1018B0009C83AD83BE83C701BE016F5F7F4F45E34D
:1018C00050E00E9487109C01009731F1C801B601D9
:1018D0000E94DD090097F1F0C7010E9482109C016F
:1018E000009731F419C0FFEF2F3F3F07A9F402C062
:1018F000CC24DD24C80168E873E1A5010E948A0AAE
:10190000282F392F0894C11CD11C83E0C816D1049C
:1019100019F0E9CF20E030E0C7012F8338870E941B
:1019200090102F81388508C021E030E005C02EEFEF
:101930003FEF02C020E030E0C90128960FB6F894CE
:10194000DEBF0FBECDBFCF91DF911F910F91FF90F2
:10195000EF90DF90CF90BF90AF9008950F9382E506
:1019600092E060E040E020E000E00E9446150F9128
:101970000895BC0181E090E044E050E00E948103C2
:101980000895BC0185E090E044E050E00E948103AE
:101990000895BC0189E090E046E050E00E94810398
:1019A0000895BC018FE090E044E050E00E94810384
:1019B0000895AF92BF92CF92DF92EF92FF920F9372
:1019C0001F93DF93CF93CDB7DEB7C955D0400FB685
:1019D000F894DEBF0FBECDBF5C017B01FFE1CF2ECF
:1019E000D12CCC0EDD1EC60182960E94E0108CE345
:1019F00092E00E944803C7010E94C90CCE010196E3
:101A000060E040E020E000E00E944615CE01039631
:101A10000E94D10CC601B70120E63AEE40E050E04A
:101A2000E0EAEE2EEFE0FE2E012D112D0E9455086A
:101A30008C018130910549F5CE010796B6010E94CF
:101A40005109CE0109960E94D10CCE010D96B60126
:101A50000E946709CE010F960E94B90CCE014396F1
:101A6000B6010E945C09CE0145960E94C10CCE01D0
:101A70004996B6010E9472098B8D9C8DAD8DBE8DED
:101A8000F50182839383A483B583C801C75ADF4FCE
:101A90000FB6F894DEBF0FBECDBFCF91DF911F917F
:101AA0000F91FF90EF90DF90CF90BF90AF9008958F
:101AB000FC0127E332E031832083DB0112962D9174
:101AC0003D914D915C9115972283338344835583D7
:101AD00008950F9386E692E060E040E020E000E0A9
:101AE0000E94461580E692E00E943C150F910895F1
:101AF000DF93CF930F92CDB7DEB76983DC01ED9111
:101B0000FC910280F381E02DBE016F5F7F4F41E0C9
:101B100050E009950F90CF91DF910895CF93DF9317
:101B2000EC0107C0E881F9810680F781E02DCE0144
:101B30000995E881F9810480F581E02DCE010995B0
:101B4000009781F7DF91CF91089521E0FC01848512
:101B5000843009F420E0822F08950F931F93DF93C0
:101B6000CF930F92CDB7DEB78C01DC01ED91FC91E4
:101B70000480F581E02D0995009751F0F8018485E6
:101B8000BE016F5F7F4F0E946102298130E002C079
:101B90002FEF3FEFC9010F90CF91DF911F910F9170
:101BA0000895FC0184850E941F020895DF93CF935E
:101BB0000F92CDB7DEB7FC018485BE016F5F7F4F0A
:101BC00041E050E00E941F02009719F0298130E0A7
:101BD00002C02FEF3FEFC9010F90CF91DF91089521
:101BE000FC016485643039F08CE392E00E94630468
:101BF000282F392F02C020E030E0C9010895EF926C
:101C0000FF920F931F93CF93DF938C01EA01FC01A6
:101C10008485843019F481E090E007C00E94CC01F3
:101C2000009739F481E090E0F80193838283C0E06B
:101C3000D0E0CE01DF91CF911F910F91FF90EF90F7
:101C40000895FC011382128228EE33E040E050E058
:101C5000248335834683578383EB91E0918380838C
:101C600084E084870895CF93DF93EC010E943C15B4
:101C7000CE0108960E94E010DF91CF9108956F92F7
:101C80007F928F929F92AF92BF92CF92DF92EF920C
:101C9000FF920F931F93DF93CF93CDB7DEB7E397F8
:101CA0000FB6F894DEBF0FBECDBF5C014B013A0109
:101CB00033E1E32EF12CEC0EFD1EC7010E94330E22
:101CC0006E010894C11CD11CC6010E943C158E01F6
:101CD000095F1F4FC80160E672E00E94580DC701FE
:101CE000B8010E948809C701B401A6010E94100C26
:101CF0009C0181309105C9F4D501ED91FC910484DA
:101D0000F585E02D87E392E09E878D878B819C810E
:101D1000AD81BE818F87988BA98BBA8BC501BE011F
:101D2000635F7F4FA30109959C01C901E3960FB63C
:101D3000F894DEBF0FBECDBFCF91DF911F910F9101
:101D4000FF90EF90DF90CF90BF90AF909F908F90DB
:101D50007F906F900895FC018485843019F00E9473
:101D6000C400089580E00895CF93DF93EC018C8543
:101D70008430D1F0CE010E94AB0E843181F08823F3
:101D800071F0883161F08C3161F4E881F98104806F
:101D9000F581E02DCE01099521E0009719F420E0AE
:101DA00001C021E0822F01C080E0DF91CF91089532
:101DB000EF92FF920F931F93CF93DF93EC018C85EB
:101DC0008430A1F10E94C4010E94D4177B018C01D0
:101DD000CE010E94AB0E882319F10E94D4176E1910
:101DE0007F09800B910B683E23E0720720E0820799
:101DF00020E09207A8F461E070E080E090E00E94AB
:101E00000818E6CF8C850E944001EC85F0E0EE0FCB
:101E1000FF1FE85AFD4F1182108284E08C8706C0B4
:101E2000CE010E94AB0E882381F3ECCFDF91CF91DE
:101E30001F910F91FF90EF900895BF92CF92DF9284
:101E4000EF92FF920F931F93CF93DF93EC018B01DF
:101E50006A018C85843009F04FC0EE24FF24BE2C2B
:101E60008E2D0E94C400882311F0883111F4BC86A5
:101E700007C00894E11CF11C84E0E816F10479F72E
:101E80008C858430C9F12091AC013091AD012F5F78
:101E90003F4F3093AD012093AC012115310531F452
:101EA00020E034E03093AD012093AC014091AC01CF
:101EB0005091AD0161E020E00E944F01B8016E5FDA
:101EC0007F4F8C85A6010E948E0109C061E070E001
:101ED00080E090E00E940818CE010E94AB0E88239B
:101EE00019F484E08C8708C0CE010E94AB0E8731C4
:101EF00069F721E030E002C020E030E0C901DF9165
:101F0000CF911F910F91FF90EF90DF90CF90BF90F6
:101F100008950F938CE692E060E040E020E000E05E
:101F20000E9446150F9108950F9382E792E060E0BA
:101F300040E020E000E00E9446150F910895DC018A
:101F4000ED91FC91008CF18DE02D09950895FC0137
:101F5000858996890895DF93CF930F92CDB7DEB729
:101F60006983DC01ED91FC910280F381E02DBE01DB
:101F70006F5F7F4F41E050E009950F90CF91DF9167
:101F80000895CF93DF93EC0107C0E881F9810680C3
:101F9000F781E02DCE010995E881F9810480F58172
:101FA000E02DCE010995009781F7DF91CF9108953B
:101FB0000F931F93DF93CF930F92CDB7DEB78C01B2
:101FC000DC01ED91FC910480F581E02D09950097ED
:101FD00051F0F8018485BE016F5F7F4F0E9461025E
:101FE000298130E002C02FEF3FEFC9010F90CF9160
:101FF000DF911F910F910895FC0184850E941F02BB
:102000000895DF93CF930F92CDB7DEB7FC0184859F
:10201000BE016F5F7F4F41E050E00E941F020097BA
:1020200019F0298130E002C02FEF3FEFC9010F9076
:10203000CF91DF910895EF92FF920F931F93DF935B
:10204000CF93CDB7DEB728970FB6F894DEBF0FBE9B
:10205000CDBF8C01DC01ED91FC910480F581E02D78
:1020600009951816190644F5F80184857E0108942F
:10207000E11CF11CB70148E050E00E941F02282F2C
:10208000392F12161306D4F4C8010F96B7010E9417
:1020900062159D8180E02E81820F911DD801569698
:1020A0009C938E935597ED91FC910480F581E02DE2
:1020B000C80109959C0102C020E030E0C9012896C2
:1020C0000FB6F894DEBF0FBECDBFCF91DF911F9149
:1020D0000F91FF90EF900895CF93DF93EC01FB01F8
:1020E0009A016F89788D8C85AF010E9470029C01E6
:1020F0008F89988D820F931F988F8F8BC901DF91E5
:10210000CF910895FC0184850E94CC020895FC01C2
:10211000108E178A6E5F7F4F84850E94A6020895F5
:10212000CF93DF93EC018C85843061F00E944001F5
:10213000EC85F0E0EE0FFF1FE85AFD4F1182108290
:1021400084E08C87DF91CF910895FC018CE392E0CD
:1021500064850E9463040895DF92EF92FF920F93CB
:102160001F93CF93DF93EC018B018C858430F9F4BE
:10217000EE24FF24DE2C8E2D0E94C400882311F053
:10218000883111F4DC8607C00894E11CF11C84E05E
:10219000E816F10479F78C85843049F01E870D87A5
:1021A00062E0A80120E00E944F0181E001C080E0D0
:1021B000DF91CF911F910F91FF90EF90DF900895E5
:1021C000FC011382128228EE33E040E050E02483C9
:1021D0003583468357838FEC91E09183808384E03D
:1021E0008487CF010F960E943C1508956F927F92CD
:1021F0008F929F92AF92BF92CF92DF92EF92FF9217
:102200000F931F93DF93CF93CDB7DEB7E3970FB64E
:10221000F894DEBF0FBECDBF5C014B013A0133E144
:10222000E32EF12CEC0EFD1EC7010E94330E6E0151
:102230000894C11CD11CC6010E943C158E01095F87
:102240001F4FC80160E672E00E94580DC701B80137
:102250000E948809C701B401A6010E94100C9C01CC
:1022600081309105C9F4D501ED91FC910088F18987
:10227000E02D87E392E09E878D878B819C81AD81E5
:10228000BE818F87988BA98BBA8BC501BE01635F16
:102290007F4FA30109959C01C901E3960FB6F894FD
:1022A000DEBF0FBECDBFCF91DF911F910F91FF9089
:1022B000EF90DF90CF90BF90AF909F908F907F90E6
:1022C0006F9008950F9388E792E060E040E020E08F
:1022D00000E00E9446150F9108958130910529F480
:1022E0008EE792E00E94E7120895009721F48EE7AE
:1022F00092E00E94C51208958DE193E040E855E216
:1023000060E070E00E943E1480E00E946A180E9423
:10231000A516089560E071E080E090E00E94AD169F
:1023200060E27EE480E090E00E940818089581E079
:1023300090E00E946D11089580E090E00E946D1180
:10234000089523EF31E0FC0131832083089508953F
:1023500008950895089523EF31E0FC01318320832F
:102360000E9488170895FC0183EF91E09183808398
:102370008EE190E0938382831386128615861486FD
:102380000895FC0184819581089508950895CF9260
:10239000DF92EF92FF920F931F93CF93DF93EC01A5
:1023A0007A018B01E881F9810190F081E02D099596
:1023B000C880D980C801B7010E941619AB01BC01C1
:1023C000D6011896ED91FC911997CE0122E030E0EC
:1023D0000995DF91CF911F910F91FF90EF90DF90C2
:1023E000CF900895FC01778766870895FC01738B71
:1023F000628B0895FC01718B608B0895EF92FF92C0
:102400000F931F93DF93CF93CDB7DEB727970FB608
:10241000F894DEBF0FBECDBF7C018C010C5E1F4F58
:10242000C80167E071E00E94BC15C8016EE071E070
:102430000E94BC15C80163E171E00E94BC15C70190
:102440000E94C511BC01C8014AE050E00E949B16E1
:10245000C8016CE171E00E94BC15C7010E94C61161
:10246000BC01C8014AE050E00E949B16C80165E229
:1024700071E00E94BC15C80161E371E00E94DC15A7
:10248000C8016BE371E00E94BC15C80162E471E011
:102490000E94DC15C80162E571E00E94BC15C8010C
:1024A0006CE571E00E94BC15C8016EE571E00E9408
:1024B000DC15C80160E671E00E94BC15C7010E94EE
:1024C000C111BC01C8010E94DC15C8016BE671E0B6
:1024D0000E94BC158E010F5F1F4FC8016CE771E0B1
:1024E0000E945B17C8010E94E91627960FB6F89460
:1024F000DEBF0FBECDBFCF91DF911F910F91FF9037
:10250000EF90089529E032E0FC01318320830E949E
:10251000A1110895CF93DF93EC0189E092E09983B4
:102520008883CE010E94A111CE010E948817DF91FD
:10253000CF910895CF93DF93EC010E94B31189E00E
:1025400092E099838883CE0144960E94210EDF9108
:10255000CF910895FC016685778580E692E00E9420
:10256000D90C21E0009709F420E0822F08950E9401
:10257000AA1208950F9389E892E060E040E020E01D
:1025800000E00E9446150F910895CF93DF93EC0170
:102590008FE192E09983888389859A85009739F045
:1025A000DC01ED91FC910480F581E02D09951A86FE
:1025B0001986DF91CF910895CF93DF93EC010E94AC
:1025C000C512CE010E948817DF91CF9108950F9315
:1025D0001F93CF93DF93EC018FE192E0998388837F
:1025E00081E290E00E9485178C010E949A1209876F
:1025F0001A8781E891E09B838A83DF91CF911F91B5
:102600000F9108950F938FE892E060E040E020E0A2
:1026100000E00E9446150F910895FC018485958580
:10262000FC01E05CFF4F208131818E5B9F4FFC01FC
:1026300080819181281B390B2F733070C901089557
:10264000FC0184859585FC01E05CFF4F4081518150
:10265000FC01EE5BFF4F208131814217530741F0AF
:102660000190F081E02DE80FF91F208130E002C0D9
:102670002FEF3FEFC9010895FC0184859585FC018A
:10268000E05CFF4F40815181FC01EE5BFF4F2081F8
:1026900031814217530771F0A081B181A80FB91F92
:1026A0002C918081918101968F73907091838083AA
:1026B00030E002C02FEF3FEFC9010895DC011E9604
:1026C0008D919C911F97FC01E05CFF4F8E5B9F4FAB
:1026D00040815181DC012D913C91119742175307A4
:1026E000B9F708951F93FC01162F26853785D90168
:1026F000A05CBF4F8D919C91019660E470E00E94B8
:102700007019D901AE5BBF4F4D915C911197841741
:102710009507D1F3D901A05CBF4F0D90BC91A02DBE
:10272000A20FB31F1C93A685B785A05CBF4F11965F
:102730009C938E93A689B7892C9181E090E0058CBB
:1027400002C0880F991F0A94E2F7282B2C9381E08E
:1027500090E01F910895FB01E05CFF4F20813181E3
:102760002F5F3F4F2F733070DB01AE5BBF4F4D913A
:102770005C9111972417350739F0A081B181A60F1C
:10278000B71F8C9331832083089508951F920F9271
:102790000FB60F9211242F933F934F935F936F9334
:1027A0007F938F939F93AF93BF93EF93FF9380910A
:1027B000C60065E972E00E94AB13FF91EF91BF91F3
:1027C000AF919F918F917F916F915F914F913F91C9
:1027D0002F910F900FBE0F901F9018958DE193E0F1
:1027E0000E940D13009711F00E94C51308951F92C7
:1027F0000F920FB60F9211242F933F935F936F9315
:102800007F938F939F93AF93BF93EF93FF93209109
:10281000190330911A0380911B0390911C03281710
:10282000390731F48091C1008F7D8093C10016C0BB
:10283000E0911B03F0911C03E752FD4F2081809132
:102840001B0390911C03019660E470E00E947019D4
:1028500090931C0380931B032093C600FF91EF917C
:10286000BF91AF919F918F917F916F915F913F91B8
:102870002F910F900FBE0F901F901895DF92EF923F
:10288000FF920F931F93CF93DF93EC017A018B019B
:10289000DD24D394403081EE580780E0680780E063
:1028A000780749F4DD24EC89FD89108260E874E83A
:1028B0008EE190E00FC0EC89FD8981E090E00E8C04
:1028C00002C0880F991F0A94E2F7808360E079E0E4
:1028D0008DE390E0A80197010E94831921503040B8
:1028E00040405040569547953795279580E12030D8
:1028F000380710F0DD20B1F6E889F9893083EA89DC
:10290000FB892083EE89FF89408181E090E09C0172
:102910000A8C02C0220F331F0A94E2F7422B408335
:10292000EE89FF8940819C010B8C02C0220F331F6E
:102930000A94E2F7422B4083EE89FF8940819C0193
:102940000C8C02C0220F331F0A94E2F7422B408303
:10295000EE89FF8920810D8C02C0880F991F0A948F
:10296000E2F7809582238083DF91CF911F910F91B1
:10297000FF90EF90DF9008951092200310921F03B4
:1029800088EE93E0A0E0B0E08093210390932203CF
:10299000A0932303B0932403EFE1F3E087E292E0F6
:1029A0009293829385E992E09587848789ED92E0FE
:1029B0009787868785EC90E0918B808B84EC90E004
:1029C000938B828B80EC90E0958B848B81EC90E0F4
:1029D000978B868B86EC90E0918F808F84E0828F3E
:1029E00083E0838F87E0848F85E0858F81E0868F09
:1029F00008958F929F92AF92BF92CF92DF92EF9203
:102A0000FF920F931F93CF93DF934C017B0182E0E2
:102A1000A82EB12CA80CB91CC0E0D0E0CC24DD2439
:102A2000F50161915F01C7014AE050E00E9458162C
:102A30008C01C7016EE20E94BF15080F191FC00E5E
:102A4000D11E2196C330D10559F7C701F401658124
:102A50004AE050E00E945816C80ED91EC601DF9108
:102A6000CF911F910F91FF90EF90DF90CF90BF908B
:102A7000AF909F908F900895FC0187E392E091833F
:102A80008083128213821482158208950F93FC01B1
:102A900087E392E091838083628343832483058369
:102AA0000F910895FC0187E392E091838083DB011D
:102AB0002D913D914D915C911397228333834483F3
:102AC00055830895CF93DF93FC01EB0188819981B1
:102AD000AA81BB8182839383A483B583CF01DF91D5
:102AE000CF91089587E392E090933D0380933C0358
:102AF00010923E0310923F03109240031092410344
:102B00000895CF92DF92EF92FF920F931F93CF938E
:102B1000DF936C017B018A01C0E0D0E00FC0D701D8
:102B20006D917D01D601ED91FC910190F081E02D38
:102B3000C6010995C80FD91F015010400115110594
:102B400071F7CE01DF91CF911F910F91FF90EF9020
:102B5000DF90CF900895DB010D900020E9F7AD01E3
:102B600041505040461B570BDC01ED91FC91028017
:102B7000F381E02D099508950E94AB150895DC01BD
:102B8000ED91FC910190F081E02D099508950F934E
:102B90001F93CF93DF93EC016DE00E94BF158C0172
:102BA000CE016AE00E94BF15080F191FC801DF910E
:102BB000CF911F910F9108950F931F93CF93DF93A0
:102BC000EC010E94AB158C01CE010E94C715080FC5
:102BD000191FC801DF91CF911F910F9108958F9216
:102BE0009F92AF92BF92CF92DF92EF92FF920F939C
:102BF0001F93DF93CF93CDB7DEB7A1970FB6F894AD
:102C0000DEBF0FBECDBF6C01042FE52FCB01122F0D
:102C100019A2223008F41AE021E2E22EF12CEC0E87
:102C2000FD1E812E9924AA24BB2403C0022FE32F6A
:102C3000CA01602F7E2FA50194010E948319129F63
:102C4000802D1124081B0894E108F1080A3014F4BF
:102C5000005D01C0095CF7010083211531054105C4
:102C6000510521F7C601B7010E94AB15A1960FB619
:102C7000F894DEBF0FBECDBFCF91DF911F910F91B2
:102C8000FF90EF90DF90CF90BF90AF909F908F908C
:102C900008952115310549F4DC01ED91FC91019075
:102CA000F081E02D642F099508950E94EF15089595
:102CB0009A01462F50E060E070E00E9449160895A6
:102CC000CF92DF92EF92FF920F931F93CF93DF93F8
:102CD000EC017A018B012115310541F4E881F9817C
:102CE0000190F081E02D642F09951AC02A3031053A
:102CF000A9F477FF12C06DE20E94BF156C01442752
:102D00005527BA014E195F09600B710BCE012AE0FD
:102D10000E94EF15C80ED91E04C02AE00E94EF15CC
:102D20006C01C601DF91CF911F910F91FF90EF9041
:102D3000DF90CF9008959A01FB01AF01662757FD00
:102D40006095762F0E9460160895009729F0BC01C7
:102D500080E090E00E94591B0895EF92FF920F933C
:102D60001F937B018C01611571058105910549F067
:102D70000E94541BA80197010E94A5199B01AC0158
:102D800003C020E030E0A901B901CA011F910F91F1
:102D9000FF90EF900895EF92FF920F931F937B01A6
:102DA0008C01621773078407950764F4CA01B9019F
:102DB0006E197F09800B910B0E94AD16E60EF71E6F
:102DC000081F191FB701C8011F910F91FF90EF90C5
:102DD0000895FC01808191810E94741A0895CF9317
:102DE000DF93EC0188819981009711F00E94741A99
:102DF000198218821D821C821B821A82DF91CF9158
:102E000008950F931F93CF93DF93EC018B016F5FB6
:102E10007F4F888199810E94621B009731F09983CE
:102E200088831B830A8381E001C080E0DF91CF911A
:102E30001F910F910895CF93DF93EC0188819981C1
:102E4000009729F08A819B818617970778F4CE0135
:102E50000E940117882341F08C819D81009731F4F5
:102E6000E881F981108202C080E001C081E0DF9139
:102E7000CF910895EF92FF920F931F93CF93DF931B
:102E8000EC017B018A01BA010E941B17882321F4FF
:102E9000CE010E94EF1607C01D830C8388819981A3
:102EA000B7010E94431CCE01DF91CF911F910F917A
:102EB000FF90EF900895CF93DF93FC011182108271
:102EC000138212821582148216826115710559F0DF
:102ED000EB0109900020E9F7AE0141505040461B3C
:102EE000570B0E943A17DF91CF910895CF93DF934C
:102EF0000E942F180E947C11CEEED3E10E948A110D
:102F00002097E1F30E94EE13F9CF0E94DA19089599
:102F10000E94741A089508951F920F920FB60F928F
:102F200011242F933F938F939F93AF93BF938091DF
:102F3000460390914703A0914803B0914903309113
:102F40004A030196A11DB11D232F2D5F2D3720F0BF
:102F50002D570196A11DB11D20934A03809346036E
:102F600090934703A0934803B09349038091420391
:102F700090914303A0914403B09145030196A11D94
:102F8000B11D8093420390934303A0934403B093F5
:102F90004503BF91AF919F918F913F912F910F90DA
:102FA0000FBE0F901F9018958FB7F894209146038D
:102FB0003091470340914803509149038FBFB901B5
:102FC000CA0108959FB7F8942091420330914303BA
:102FD000409144035091450386B5A89B06C08F3F9E
:102FE00021F02F5F3F4F4F4F5F4F9FBF542F432F15
:102FF000322F2227280F311D411D511D82E0220F43
:10300000331F441F551F8A95D1F7B901CA0108958E
:10301000EF92FF920F931F93CF93DF937B018C016D
:103020000E94E217EB010FC00E94E2176C1B7D0BA0
:1030300083E0683E780738F00894E108F108010958
:103040001109C851DC4FE114F1040105110561F7C4
:10305000DF91CF911F910F91FF90EF900895789499
:1030600084B5826084BD84B5816084BD85B582608D
:1030700085BD85B5816085BDEEE6F0E0808181602B
:103080008083E1E8F0E0108280818260808380812B
:1030900081608083E0E8F0E0808181608083E1EB03
:1030A000F0E0808184608083E0EBF0E080818160EB
:1030B0008083EAE7F0E080818460808380818260A1
:1030C000808380818160808380818068808310928A
:1030D000C10008958E3008F08E5087709091AE0137
:1030E0009295990F990F907C982B90937C008091EA
:1030F0007A00806480937A0080917A0086FDFCCF0C
:103100002091780030917900932F80E030E0282BD7
:10311000392BC9010895833071F0843028F481304F
:10312000A1F0823021F514C08630B1F08730D1F0A3
:103130008430E9F404C0809180008F7703C08091CF
:1031400080008F7D80938000089584B58F7702C0C2
:1031500084B58F7D84BD08958091B0008F77809372
:10316000B00008958091B0008F7D8093B0000895E5
:1031700090E0FC01E656FF4F2491FC01EA57FF4F17
:10318000E491EE23C1F0F0E0EE0FFF1FE859FF4F8E
:1031900085919491DC01662341F49FB7F8948C915A
:1031A000209582238C939FBF08959FB7F8948C91AC
:1031B000822B8C939FBF08950F931F93DF93CF9320
:1031C0000F92CDB7DEB7282F30E0F901E255FF4F5F
:1031D0008491F901E656FF4F14912A573F4FF901A8
:1031E00004910023D9F0882321F069830E948B1871
:1031F0006981E02FF0E0EE0FFF1FEE58FF4F859141
:103200009491DC019FB7F894662321F48C9110957A
:10321000812302C08C91812B8C939FBF0F90CF9103
:10322000DF911F910F910895E89409C097FB3EF438
:1032300090958095709561957F4F8F4F9F4F992303
:10324000A9F0F92F96E9BB279395F6958795779581
:103250006795B795F111F8CFFAF4BB0F11F460FF41
:103260001BC06F5F7F4F8F4F9F4F16C0882311F099
:1032700096E911C0772321F09EE8872F762F05C0AD
:10328000662371F096E8862F70E060E02AF09A9548
:10329000660F771F881FDAF7880F9695879597F93D
:1032A0000895629FD001739FF001829FE00DF11D90
:1032B000649FE00DF11D929FF00D839FF00D749FB0
:1032C000F00D659FF00D9927729FB00DE11DF91F5C
:1032D000639FB00DE11DF91FBD01CF0111240895B9
:1032E00097FB092E07260AD077FD04D049D006D0D7
:1032F00000201AF4709561957F4F0895F6F7909528
:1033000081959F4F0895A1E21A2EAA1BBB1BFD01B8
:103310000DC0AA1FBB1FEE1FFF1FA217B307E407B4
:10332000F50720F0A21BB30BE40BF50B661F771F0C
:10333000881F991F1A9469F76095709580959095EC
:103340009B01AC01BD01CF01089597FB092E052615
:103350000ED057FD04D0D7DF0AD0001C38F45095AA
:103360004095309521953F4F4F4F5F4F0895F6F7A9
:1033700090958095709561957F4F8F4F9F4F0895E1
:10338000AA1BBB1B51E107C0AA1FBB1FA617B7078B
:1033900010F0A61BB70B881F991F5A95A9F78095A7
:1033A0009095BC01CD010895EE0FFF1F0590F4919B
:1033B000E02D0994CF93DF938230910510F482E0E1
:1033C00090E0E0914D03F0914E0340E050E020E0AA
:1033D00030E026C06081718168177907E0F06817D6
:1033E000790781F4828193812115310531F0D9016A
:1033F00013969C938E9312972BC090934E038093B9
:103400004D0326C04115510519F06417750718F4CE
:10341000AB01E901DF019F0172816381E72FF62F84
:103420003097C1F64115510501F1481B590B443045
:10343000510580F412968D919C911397209719F065
:103440009B838A8304C090934E0380934D03FD01B8
:10345000329646C0FD01E40FF51F819391934250CF
:10346000504011965C934E933BC020914B0330919A
:103470004C032115310541F42091A4013091A5019F
:1034800030934C0320934B032091A6013091A70168
:103490002115310541F42DB73EB74091A20150915D
:1034A000A301241B350BE0914B03F0914C03E21771
:1034B000F307A0F42E1B3F0B2817390778F0AC0157
:1034C0004E5F5F4F2417350748F04E0F5F1F509334
:1034D0004C0340934B038193919302C0E0E0F0E0F2
:1034E000CF01DF91CF910895CF93DF93009709F437
:1034F00091C0FC0132971382128260914D0370914A
:103500004E036115710581F420813181280F391F27
:1035100080914B0390914C038217930799F5F09398
:103520004C03E0934B0376C0DB0180E090E002C0E7
:10353000CD01D901AE17BF0748F412962D913C91E9
:10354000139721153105A1F7CD0121C0B383A283C3
:10355000EF01499159919E01240F351FA217B3071E
:1035600079F42D913C911197240F351F2E5F3F4F19
:103570003183208312962D913C91139733832283BC
:10358000009729F4F0934E03E0934D0343C0DC0110
:103590001396FC93EE9312974D915D91A40FB51F76
:1035A000EA17FB0769F420813181240F351F2E5F54
:1035B0003F4FEC0139832883228133813B832A8367
:1035C000E0E0F0E002C0FB01BC01DB0112968D914E
:1035D0009C9113970097B9F79B012E5F3F4F8D91F8
:1035E0009C911197820F931F40914B0350914C0374
:1035F0004817590779F4309729F410924E03109226
:103600004D0302C0138212822250304030934C038B
:1036100020934B03DF91CF910895A0E0B0E0E3E168
:10362000FBE10C94521CEC01688179818A819B81B9
:10363000611571058105910521F464E279ED8BE551
:1036400097E02DE133EF41E050E00E94A5197901A8
:103650008A0127EA31E440E050E00E9451195B0101
:103660006C01C801B7012CEE34EF4FEF5FEF0E9401
:1036700051199B01AC012A0D3B1D4C1D5D1D57FFCF
:1036800004C02150304040405048288339834A8349
:103690005B835F77B901CA01CDB7DEB7EAE00C946E
:1036A0006E1C0E940D1B089588EA91E00E940D1B7C
:1036B00008956093A8017093A9018093AA01909343
:1036C000AB010895A0E0B0E0E8E6FBE10C94501CEB
:1036D0008C01CB010115110529F40E94DA19082F7C
:1036E000192FB5C0D80112979801260F371F2A1736
:1036F0003B0708F4AAC0ED90FC901197E616F70678
:10370000D0F045E0E416F10408F4A1C0A70144504C
:1037100050404617570708F49AC0A701425050403E
:10372000461B570BF901419351936D937C93CF0145
:103730000E94741A8CC05B01AE18BF0848018E0C41
:103740009F1CE0914D03F0914E03CC24DD24C0E09A
:10375000D0E041C0E815F90599F560817181AB01B0
:103760004E5F5F4F4A155B0558F1AB014A195B0983
:10377000CC24DD246894C1F8C40ED51E8280A380B9
:10378000E5E0CE16D10448F0F9018282A38251838C
:10379000408311969C938E9309C0C7010296860FB1
:1037A000971F11969C938E93E82DFA2D209719F070
:1037B000FB83EA834CC0F0934E03E0934D0347C074
:1037C00040815181C416D50608F46A01EF01528187
:1037D0004381E52FF42F309709F0BCCF40914B0384
:1037E00050914C0348155905E9F4C816D906D0F490
:1037F0004091A6015091A7014115510541F44DB7E3
:103800005EB76091A2017091A301461B570B24176C
:103810003507D8F430934C0320934B0311969C93B7
:103820008E9315C00E94DA19C82EE6016E01D92EBA
:10383000E601209751F08C2DB801A7010E943A1C97
:10384000C8010E94741A860102C000E010E0C8019D
:10385000CDB7DEB7ECE00C946C1CFB01DC0104C0BE
:103860008D910190801921F441505040C8F7881B78
:10387000990B0895FB01DC0102C001900D924150AB
:103880005040D8F70895FB01DC0101900D92002013
:10389000E1F708952F923F924F925F926F927F923D
:1038A0008F929F92AF92BF92CF92DF92EF92FF9250
:1038B0000F931F93CF93DF93CDB7DEB7CA1BDB0BFC
:1038C0000FB6F894DEBF0FBECDBF09942A883988A1
:1038D00048885F846E847D848C849B84AA84B984A8
:1038E000C884DF80EE80FD800C811B81AA81B981B4
:1038F000CE0FD11D0FB6F894DEBF0FBECDBFED01C8
:10390000089510E0C8EDD0E004C0FE010E94D61971
:0C3910002296CA3DD107C9F7F894FFCFFA
:10391C0057495A6E657400504F5354202F0076311E
:10392C002E30002F6465766963652F002F73656EEA
:10393C00736F722F002F64617461706F696E747392
:10394C000020485454502F312E3100486F73743A74
:10395C0020006170692E7965656C696E6B2E6E65E1
:10396C0074004163636570743A202A002F002A00AA
:10397C00552D4170694B65793A2000436F6E746523
:10398C006E742D4C656E6774683A200032332E3598
:10399C0000383935303162343338373931653238A3
:1039AC006637346332313033356138386666666475
:1039BC00320020004F030000010000000004010051
:1039CC00000000780DFF0DF00DD60DAD0D8E0D1D08
:1039DC000F3F0ED10DD80EB40EA50D00000000AB9C
:1039EC000F6C10A5100110D80FC10FAC10901087E0
:1039FC0010F61082101B10FC0F9F0F6305A70F0011
:103A0C000000008B17A111AB118B178B17A711A8F6
:103A1C0011AA11A91100000000FE1182128A12C70E
:103A2C0011B712A711F211FA11F61100000000C51E
:103A3C0012DC1200000000721381150D133C1320D0
:0A3A4C00135E1300000000F91400DF
:00000001FF
