:100000000C943E000C9466000C9466000C94660000
:100010000C9466000C9466000C9466000C946600C8
:100020000C9466000C9466000C9466000C946600B8
:100030000C9466000C9466000C9466000C946600A8
:100040000C94C9040C9466000C943E020C946F024C
:100050000C9466000C9466000C9466000C94660088
:100060000C9466000C946600680073007E008D009E
:100070009800A300D8003403CA03DD0011241FBE7A
:10008000CFEFD8E0DEBFCDBF11E0A0E0B1E0E8E9FE
:10009000F0E102C005900D92A837B107D9F712E040
:1000A000A8E7B1E001C01D92AB36B107E1F710E05F
:1000B000CAE7D0E004C02297FE010E947C06C83641
:1000C000D107C9F70E94B3040C943F080C940000B8
:1000D0000F9388E791E060E040E020E000E00E94BC
:1000E000BE030F9108950F938EE791E060E040E02A
:1000F00020E000E00E94BE030F9108950F938AE86C
:1001000091E060E040E020E000E00E94BE0384E86F
:1001100091E00E94B4030F9108950F9380E991E05C
:1001200060E040E020E000E00E94BE030F910895EF
:100130000F9386E991E060E040E020E000E00E945B
:10014000BE030F9108950F938CE991E060E040E0C9
:1001500020E000E00E94BE030F91089581309105D8
:1001600029F482EA91E00E9466010895009721F443
:1001700082EA91E00E944401089589E392E040E818
:1001800055E260E070E00E94B60280E00E949905AE
:100190000E948D04089560E071E080E090E00E948C
:1001A000950460E27EE480E090E00E9437050895C7
:1001B00081E090E00E94AE00089580E090E00E940F
:1001C000AE00089525E331E0FC01318320830895DA
:1001D000089508950895089525E331E0FC013183E1
:1001E00020830E94C5040895FC0185E391E091837A
:1001F00080838EE190E0938382831186108613863C
:100200001286089580E008950F931F93CF93DF9394
:10021000EC01CB01BA01088119810E94BC05AB0138
:10022000BC01D8011696ED91FC911797CE01099566
:10023000DF91CF911F910F9108950895089508952A
:1002400029E431E0FC01318320830E94E20008951B
:10025000CF93DF93EC0189E491E099838883CE0109
:100260000E94E200CE010E94C504DF91CF91089563
:10027000CF93DF93EC010E94F40089E491E099832D
:100280008883DF91CF910895CF93DF93EC018DE5C3
:1002900091E0998388838D859E85009739F0DC01F4
:1002A000ED91FC910280F381E02D09951E861D865B
:1002B000DF91CF910895CF93DF93EC010E94440129
:1002C000CE010E94C504DF91CF9108950F931F9333
:1002D000CF93DF93EC018DE591E09983888382E1F0
:1002E00090E00E94C2048C010E9438010D871E8795
:1002F00080E091E09B838A8381E291E098878F83FD
:10030000DF91CF911F910F910895FC018485958510
:10031000FC01E05CFF4F208131818E5B9F4FFC012F
:1003200080819181281B390B2F733070C90108958A
:10033000FC0184859585FC01E05CFF4F4081518183
:10034000FC01EE5BFF4F208131814217530741F0E2
:100350000190F081E02DE80FF91F208130E002C00C
:100360002FEF3FEFC9010895FC0184859585FC01BD
:10037000E05CFF4F40815181FC01EE5BFF4F20812B
:1003800031814217530771F0A081B181A80FB91FC5
:100390002C918081918101968F73907091838083DD
:1003A00030E002C02FEF3FEFC9010895DC011E9637
:1003B0008D919C911F97FC01E05CFF4F8E5B9F4FDE
:1003C00040815181DC012D913C91119742175307D7
:1003D000B9F708951F93FC01162F26853785D9019B
:1003E000A05CBF4F8D919C91019660E470E00E94EB
:1003F0001606D901AE5BBF4F4D915C9111978417E2
:100400009507D1F3D901A05CBF4F0D90BC91A02DF1
:10041000A20FB31F1C93A685B785A05CBF4F119692
:100420009C938E93A689B7892C9181E090E0058CEE
:1004300002C0880F991F0A94E2F7282B2C9381E0C1
:1004400090E01F910895FB01E05CFF4F2081318116
:100450002F5F3F4F2F733070DB01AE5BBF4F4D916D
:100460005C9111972417350739F0A081B181A60F4F
:10047000B71F8C9331832083089508951F920F92A4
:100480000FB60F9211242F933F934F935F936F9367
:100490007F938F939F93AF93BF93EF93FF9380913D
:1004A000C60061EB71E00E942302FF91EF91BF91C2
:1004B000AF919F918F917F916F915F914F913F91FC
:1004C0002F910F900FBE0F901F90189589E392E027
:1004D0000E948501009711F00E943D0208951F922D
:1004E0000F920FB60F9211242F933F935F936F9348
:1004F0007F938F939F93AF93BF93EF93FF9320913D
:1005000035023091360280913702909138022817D7
:10051000390731F48091C1008F7D8093C10016C0EE
:10052000E0913702F0913802EB50FE4F208180912C
:10053000370290913802019660E470E00E9416063E
:1005400090933802809337022093C600FF91EF9179
:10055000BF91AF919F918F917F916F915F913F91EB
:100560002F910F900FBE0F901F901895DF92EF9272
:10057000FF920F931F93CF93DF93EC017A018B01CE
:10058000DD24D394403081EE580780E0680780E096
:10059000780749F4DD24EC89FD89108260E874E86D
:1005A0008EE190E00FC0EC89FD8981E090E00E8C37
:1005B00002C0880F991F0A94E2F7808360E079E017
:1005C0008DE390E0A80197010E9429062150304058
:1005D00040405040569547953795279580E120300B
:1005E000380710F0DD20B1F6E889F9893083EA890F
:1005F000FB892083EE89FF89408181E090E09C01A6
:100600000A8C02C0220F331F0A94E2F7422B408368
:10061000EE89FF8940819C010B8C02C0220F331FA1
:100620000A94E2F7422B4083EE89FF8940819C01C6
:100630000C8C02C0220F331F0A94E2F7422B408336
:10064000EE89FF8920810D8C02C0880F991F0A94C2
:10065000E2F7809582238083DF91CF911F910F91E4
:10066000FF90EF90DF90089510923C0210923B02B1
:1006700088EE93E0A0E0B0E080933D0290933E02CC
:10068000A0933F02B0934002EBE3F2E085E691E0F5
:100690009293829381EB91E09587848785EF91E037
:1006A0009787868785EC90E0918B808B84EC90E037
:1006B000938B828B80EC90E0958B848B81EC90E027
:1006C000978B868B86EC90E0918F808F84E0828F71
:1006D00083E0838F87E0848F85E0858F81E0868F3C
:1006E00008958F929F92AF92BF92CF92DF92EF9236
:1006F000FF920F931F93CF93DF934C017B0182E016
:10070000A82EB12CA80CB91CC0E0D0E0CC24DD246C
:10071000F50161915F01C7014AE050E00E94850444
:100720008C01C7016EE20E941404080F191FC00E4D
:10073000D11E2196C330D10559F7C701F401658157
:100740004AE050E00E948504C80ED91EC601DF9120
:10075000CF911F910F91FF90EF90DF90CF90BF90BE
:10076000AF909F908F900895FC0185E791E0918371
:100770008083128213821482158208950F93FC01E4
:1007800085E791E09183808362834383248305839B
:100790000F91089585E791E0909359028093580254
:1007A00010925A0210925B0210925C0210925D024B
:1007B0000895CF92DF92EF92FF920F931F93CF9302
:1007C000DF936C017B018A01C0E0D0E00FC0D7014C
:1007D0006D917D01D601ED91FC910190F081E02DAC
:1007E000C6010995C80FD91F015010400115110508
:1007F00071F7CE01DF91CF911F910F91FF90EF9094
:10080000DF90CF900895DB010D900020E9F7AD0156
:1008100041505040461B570BDC01ED91FC9102808A
:10082000F381E02D09950895DC01ED91FC91019093
:10083000F081E02D099508958F929F92AF92BF921B
:10084000CF92DF92EF92FF920F931F93DF93CF939C
:10085000CDB7DEB7A1970FB6F894DEBF0FBECDBF00
:100860006C01042FE52FCB01122F19A2223008F4BE
:100870001AE021E2E22EF12CEC0EFD1E812E9924CD
:10088000AA24BB2403C0022FE32FCA01602F7E2FAE
:10089000A50194010E942906129F802D1124081B96
:1008A0000894E108F1080A3014F4005D01C0095C05
:1008B000F7010083211531054105510521F7C601D6
:1008C000B7010E940304A1960FB6F894DEBF0FBED5
:1008D000CDBFCF91DF911F910F91FF90EF90DF90EF
:1008E000CF90BF90AF909F908F90089521153105C4
:1008F00049F4DC01ED91FC910190F081E02D642F31
:10090000099508950E941C0408959A01462F50E00D
:1009100060E070E00E9476040895009729F0BC0121
:1009200080E090E00E94FF070895EF92FF920F93FE
:100930001F937B018C01611571058105910549F0BB
:100940000E94FA07A80197010E944B069B01AC0187
:1009500003C020E030E0A901B901CA011F910F9145
:10096000FF90EF900895CF93DF930E945E050E9461
:10097000BD00C6E6D2E00E94CB002097E1F30E94C2
:100980006602F9CF0E94800608950E941A07089512
:1009900008951F920F920FB60F9211242F933F9339
:1009A0008F939F93AF93BF93809162029091630264
:1009B000A0916402B0916502309166020196A11D7A
:1009C000B11D232F2D5F2D3720F02D570196A11D2E
:1009D000B11D209366028093620290936302A093FC
:1009E0006402B093650280915E0290915F02A091D3
:1009F0006002B09161020196A11DB11D80935E025B
:100A000090935F02A0936002B0936102BF91AF9197
:100A10009F918F913F912F910F900FBE0F901F903C
:100A200018959FB7F89420915E0230915F02409133
:100A300060025091610286B5A89B06C08F3F21F0ED
:100A40002F5F3F4F4F4F5F4F9FBF542F432F322F8A
:100A50002227280F311D411D511D82E0220F331F17
:100A6000441F551F8A95D1F7B901CA010895EF9225
:100A7000FF920F931F93CF93DF937B018C010E9412
:100A80001105EB010FC00E9411056C1B7D0B83E06B
:100A9000683E780738F00894E108F1080109110967
:100AA000C851DC4FE114F1040105110561F7DF9134
:100AB000CF911F910F91FF90EF900895789484B596
:100AC000826084BD84B5816084BD85B5826085BD4A
:100AD00085B5816085BDEEE6F0E080818160808330
:100AE000E1E8F0E010828081826080838081816013
:100AF0008083E0E8F0E0808181608083E1EBF0E0DA
:100B0000808184608083E0EBF0E08081816080837D
:100B1000EAE7F0E080818460808380818260808366
:100B20008081816080838081806880831092C10091
:100B300008958E3008F08E50877090913001929514
:100B4000990F990F907C982B90937C0080917A005C
:100B5000806480937A0080917A0086FDFCCF20919A
:100B6000780030917900932F80E030E0282B392BEA
:100B7000C9010895E89409C097FB3EF490958095CB
:100B8000709561957F4F8F4F9F4F9923A9F0F92F53
:100B900096E9BB279395F695879577956795B795D1
:100BA000F111F8CFFAF4BB0F11F460FF1BC06F5FB7
:100BB0007F4F8F4F9F4F16C0882311F096E911C0C9
:100BC000772321F09EE8872F762F05C0662371F0EA
:100BD00096E8862F70E060E02AF09A95660F771FFE
:100BE000881FDAF7880F9695879597F90895629F81
:100BF000D001739FF001829FE00DF11D649FE00D15
:100C0000F11D929FF00D839FF00D749FF00D659F75
:100C1000F00D9927729FB00DE11DF91F639FB00D74
:100C2000E11DF91FBD01CF011124089597FB092E85
:100C300007260AD077FD04D049D006D000201AF448
:100C4000709561957F4F0895F6F7909581959F4F28
:100C50000895A1E21A2EAA1BBB1BFD010DC0AA1FFD
:100C6000BB1FEE1FFF1FA217B307E407F50720F015
:100C7000A21BB30BE40BF50B661F771F881F991F90
:100C80001A9469F760957095809590959B01AC01D9
:100C9000BD01CF01089597FB092E05260ED057FD03
:100CA00004D0D7DF0AD0001C38F450954095309519
:100CB00021953F4F4F4F5F4F0895F6F790958095E0
:100CC000709561957F4F8F4F9F4F0895AA1BBB1B57
:100CD00051E107C0AA1FBB1FA617B70710F0A61B3C
:100CE000B70B881F991F5A95A9F780959095BC015D
:100CF000CD010895EE0FFF1F0590F491E02D0994AA
:100D0000CF93DF938230910510F482E090E0E09180
:100D10006902F0916A0240E050E020E030E026C035
:100D20006081718168177907E0F06817790781F4AD
:100D3000828193812115310531F0D90113969C935D
:100D40008E9312972BC090936A028093690226C0FB
:100D50004115510519F06417750718F4AB01E90145
:100D6000DF019F0172816381E72FF62F3097C1F673
:100D70004115510501F1481B590B4430510580F4D0
:100D800012968D919C911397209719F09B838A83DB
:100D900004C090936A0280936902FD01329646C0B6
:100DA000FD01E40FF51F819391934250504011963D
:100DB0005C934E933BC020916702309168022115ED
:100DC000310541F4209128013091290130936802C6
:100DD0002093670220912A0130912B0121153105C2
:100DE00041F42DB73EB74091260150912701241BB5
:100DF000350BE0916702F0916802E217F307A0F467
:100E00002E1B3F0B2817390778F0AC014E5F5F4F60
:100E10002417350748F04E0F5F1F50936802409328
:100E200067028193919302C0E0E0F0E0CF01DF918F
:100E3000CF910895CF93DF93009709F491C0FC01FF
:100E40003297138212826091690270916A02611571
:100E5000710581F420813181280F391F809167024B
:100E6000909168028217930799F5F0936802E093D6
:100E7000670276C0DB0180E090E002C0CD01D901BD
:100E8000AE17BF0748F412962D913C911397211588
:100E90003105A1F7CD0121C0B383A283EF014991B0
:100EA00059919E01240F351FA217B30779F42D9194
:100EB0003C911197240F351F2E5F3F4F31832083C4
:100EC00012962D913C91139733832283009729F436
:100ED000F0936A02E093690243C0DC011396FC932D
:100EE000EE9312974D915D91A40FB51FEA17FB0782
:100EF00069F420813181240F351F2E5F3F4FEC01B3
:100F000039832883228133813B832A83E0E0F0E028
:100F100002C0FB01BC01DB0112968D919C911397DD
:100F20000097B9F79B012E5F3F4F8D919C911197D0
:100F3000820F931F4091670250916802481759072A
:100F400079F4309729F410926A021092690202C073
:100F5000138212822250304030936802209367023D
:100F6000DF91CF910895A0E0B0E0E9EBF7E00C94B9
:100F70001008EC01688179818A819B816115710576
:100F80008105910521F464E279ED8BE597E02DE18F
:100F900033EF41E050E00E944B0679018A0127EAD5
:100FA00031E440E050E00E94F7055B016C01C801AC
:100FB000B7012CEE34EF4FEF5FEF0E94F7059B0176
:100FC000AC012A0D3B1D4C1D5D1D57FF04C0215077
:100FD000304040405048288339834A835B835F77A1
:100FE000B901CA01CDB7DEB7EAE00C942C080E9423
:100FF000B30708958CE291E00E94B30708956093CF
:101000002C0170932D0180932E0190932F01089550
:101010002F923F924F925F926F927F928F929F9208
:10102000AF92BF92CF92DF92EF92FF920F931F93F6
:10103000CF93DF93CDB7DEB7CA1BDB0B0FB6F894A7
:10104000DEBF0FBECDBF09942A88398848885F84E7
:101050006E847D848C849B84AA84B984C884DF8058
:10106000EE80FD800C811B81AA81B981CE0FD11D3C
:101070000FB6F894DEBF0FBECDBFED01089510E0AE
:10108000CAE7D0E004C0FE010E947C062296CC375D
:08109000D107C9F7F894FFCF66
:10109800383935303162343338373931653238666A
:1010A80037346332313033356138386666666432D6
:1010B8000076312E300020006B0200000100000095
:1010C8000100000000E200EC00C804C804E800E9E0
:1010D80000EB00EA000000000020012801040102E2
:1010E80001E8001D011F011E010000000044015B12
:1010F8000100000000EA01D9038501B4019801D676
:0811080001000000007103006A
:00000001FF
