:100000000C9437000C945F000C945F000C945F001C
:100010000C945F000C945F000C945F000C945F00E4
:100020000C945F000C945F000C945F000C945F00D4
:100030000C945F000C945F000C945F000C945F00C4
:100040000C942A030C945F000C947A010C94AB017D
:100050000C945F000C945F000C945F000C945F00A4
:100060000C945F000C945F008C00700291001124CE
:100070001FBECFEFD8E0DEBFCDBF11E0A0E0B1E002
:10008000E8E7FAE002C005900D92A436B107D9F76F
:1000900012E0A4E6B1E001C01D92A732B107E1F77A
:1000A00010E0CCE6D0E004C02297FE010E94F803E5
:1000B000C836D107C9F70E9418030C942F050C9479
:1000C00000008130910529F484E691E00E94A400AB
:1000D0000895009721F484E691E00E949600089527
:1000E0008BEF91E040E855E260E070E00E94F201A1
:1000F00084E691E00E94BD00882331F48BEF91E00B
:1001000060E071E00E940503089584E691E067E1F4
:1001100070E00E94BF00089581E090E00E946100BD
:10012000089580E090E00E946100089520E531E0AC
:10013000FC0131832083089520E531E0FC01318307
:1001400020830E9427030895FC0180E591E09183BC
:100150008083168280E291E09383828315821482E9
:1001600081E491E090878783128611861486138636
:1001700081E090E096878587089580E0089580E08B
:100180000895FC0184859585FC01E05CFF4F20818A
:1001900031818E5B9F4FFC0180819181281B390B3F
:1001A0002F733070C9010895FC0184859585FC0189
:1001B000E05CFF4F40815181FC01EE5BFF4F2081ED
:1001C00031814217530741F00190F081E02DE80F93
:1001D000F91F208130E002C02FEF3FEFC9010895E1
:1001E000FC0184859585FC01E05CFF4F40815181D5
:1001F000FC01EE5BFF4F208131814217530771F004
:10020000A081B181A80FB91F2C91808191810196A5
:100210008F7390709183808330E002C02FEF3FEFA7
:10022000C9010895DC011E968D919C911F97FC01D8
:10023000E05CFF4F8E5B9F4F40815181DC012D912F
:100240003C91119742175307B9F708951F93FC018A
:10025000162F26853785D901A05CBF4F8D919C91C3
:10026000019660E470E00E94AD03D901AE5BBF4F20
:100270004D915C91119784179507D1F3D901A05C3A
:10028000BF4F0D90BC91A02DA20FB31F1C93A6854C
:10029000B785A05CBF4F11969C938E93A689B789B2
:1002A0002C9181E090E0058C02C0880F991F0A9480
:1002B000E2F7282B2C9381E090E01F910895FB0139
:1002C000E05CFF4F208131812F5F3F4F2F733070F3
:1002D000DB01AE5BBF4F4D915C9111972417350741
:1002E00039F0A081B181A60FB71F8C933183208391
:1002F000089508951F920F920FB60F9211242F9315
:100300003F934F935F936F937F938F939F93AF939D
:10031000BF93EF93FF938091C60063E771E00E9463
:100320005F01FF91EF91BF91AF919F918F917F916D
:100330006F915F914F913F912F910F900FBE0F9052
:100340001F9018958BEF91E00E94C100009711F06B
:100350000E94790108951F920F920FB60F921124F7
:100360002F933F935F936F937F938F939F93AF935D
:10037000BF93EF93FF932091F7013091F8018091A3
:10038000F9019091FA012817390731F48091C100E1
:100390008F7D8093C10016C0E091F901F091FA01C0
:1003A000E954FE4F20818091F9019091FA01019664
:1003B00060E470E00E94AD039093FA018093F9012C
:1003C0002093C600FF91EF91BF91AF919F918F91C4
:1003D0007F916F915F913F912F910F900FBE0F9082
:1003E0001F901895DF92EF92FF920F931F93CF9378
:1003F000DF93EC017A018B01DD24D394403081EE50
:10040000580780E0680780E0780749F4DD24EC892C
:10041000FD89108260E874E88EE190E00FC0EC89FD
:10042000FD8981E090E00E8C02C0880F991F0A942C
:10043000E2F7808360E079E08DE390E0A801970126
:100440000E94C0032150304040405040569547958F
:100450003795279580E12030380710F0DD20B1F680
:10046000E889F9893083EA89FB892083EE89FF894D
:10047000408181E090E09C010A8C02C0220F331F72
:100480000A94E2F7422B4083EE89FF8940819C0168
:100490000B8C02C0220F331F0A94E2F7422B4083D9
:1004A000EE89FF8940819C010C8C02C0220F331F12
:1004B0000A94E2F7422B4083EE89FF8920810D8C5C
:1004C00002C0880F991F0A94E2F7809582238083E7
:1004D000DF91CF911F910F91FF90EF90DF900895E2
:1004E0001092FE011092FD0188EE93E0A0E0B0E0D2
:1004F0008093FF0190930002A0930102B093020247
:10050000EDEFF1E088E591E09293829383E791E04B
:100510009587848787EB91E09787868785EC90E0C5
:10052000918B808B84EC90E0938B828B80EC90E0BD
:10053000958B848B81EC90E0978B868B86EC90E09A
:10054000918F808F84E0828F83E0838F87E0848F18
:1005500085E0858F81E0868F0895CF92DF92EF92BC
:10056000FF920F931F93CF93DF936C017B018A015E
:10057000C0E0D0E00FC0D7016D917D01D601ED91B3
:10058000FC910190F081E02DC6010995C80FD91F9B
:10059000015010400115110571F7CE01DF91CF9187
:1005A0001F910F91FF90EF90DF90CF900895DB01A6
:1005B0000D900020E9F7AD0141505040461B570B0C
:1005C000DC01ED91FC910280F381E02D0995089505
:1005D000DC01ED91FC910190F081E02D09950895E9
:1005E0000F931F93CF93DF93EC016DE00E94E8021D
:1005F0008C01CE016AE00E94E802080F191FC801B1
:10060000DF91CF911F910F9108950F931F93CF9377
:10061000DF93EC010E94D7028C01CE010E94F00210
:10062000080F191FC801DF91CF911F910F910895F5
:10063000CF93DF930E9472030E947000C2EAD1E060
:100640000E9485002097E1F30E94A201F9CF0E9449
:10065000960408951F920F920FB60F9211242F93B4
:100660003F938F939F93AF93BF9380911E0290917E
:100670001F02A0912002B091210230912202019626
:10068000A11DB11D232F2D5F2D3720F02D57019671
:10069000A11DB11D2093220280931E0290931F0280
:1006A000A0932002B093210280911A0290911B0224
:1006B000A0911C02B0911D020196A11DB11D809355
:1006C0001A0290931B02A0931C02B0931D02BF91CB
:1006D000AF919F918F913F912F910F900FBE0F90EF
:1006E0001F901895789484B5826084BD84B581602C
:1006F00084BD85B5826085BD85B5816085BDEEE62A
:10070000F0E0808181608083E1E8F0E01082808108
:1007100082608083808181608083E0E8F0E0808176
:1007200081608083E1EBF0E0808184608083E0EB96
:10073000F0E0808181608083EAE7F0E0808184607E
:1007400080838081826080838081816080838081DA
:10075000806880831092C100089597FB092E0726B8
:100760000AD077FD04D02ED006D000201AF4709560
:1007700061957F4F0895F6F7909581959F4F089565
:10078000A1E21A2EAA1BBB1BFD010DC0AA1FBB1F95
:10079000EE1FFF1FA217B307E407F50720F0A21B07
:1007A000B30BE40BF50B661F771F881F991F1A9474
:1007B00069F760957095809590959B01AC01BD019E
:1007C000CF010895AA1BBB1B51E107C0AA1FBB1F85
:1007D000A617B70710F0A61BB70B881F991F5A95CD
:1007E000A9F780959095BC01CD010895EE0FFF1FEC
:1007F0000590F491E02D0994CF93DF938230910519
:1008000010F482E090E0E0912502F091260240E0B1
:1008100050E020E030E026C06081718168177907E0
:10082000E0F06817790781F4828193812115310501
:1008300031F0D90113969C938E9312972BC090930D
:1008400026028093250226C04115510519F0641730
:10085000750718F4AB01E901DF019F017281638123
:10086000E72FF62F3097C1F64115510501F1481BCE
:10087000590B4430510580F412968D919C91139739
:10088000209719F09B838A8304C09093260280935B
:100890002502FD01329646C0FD01E40FF51F81934C
:1008A00091934250504011965C934E933BC02091DF
:1008B0002302309124022115310541F42091480191
:1008C00030914901309324022093230220914A0160
:1008D00030914B012115310541F42DB73EB74091C0
:1008E000460150914701241B350BE0912302F09102
:1008F0002402E217F307A0F42E1B3F0B2817390739
:1009000078F0AC014E5F5F4F2417350748F04E0F6B
:100910005F1F50932402409323028193919302C05E
:10092000E0E0F0E0CF01DF91CF910895CF93DF9326
:10093000009709F491C0FC013297138212826091F2
:100940002502709126026115710581F420813181A3
:10095000280F391F80912302909124028217930758
:1009600099F5F0932402E093230276C0DB0180E046
:1009700090E002C0CD01D901AE17BF0748F412962E
:100980002D913C91139721153105A1F7CD0121C07F
:10099000B383A283EF01499159919E01240F351F22
:1009A000A217B30779F42D913C911197240F351FAD
:1009B0002E5F3F4F3183208312962D913C911397E8
:1009C00033832283009729F4F0932602E0932502D3
:1009D00043C0DC011396FC93EE9312974D915D9109
:1009E000A40FB51FEA17FB0769F420813181240F9A
:1009F000351F2E5F3F4FEC013983288322813381DD
:100A00003B832A83E0E0F0E002C0FB01BC01DB0194
:100A100012968D919C9113970097B9F79B012E5FC9
:100A20003F4F8D919C911197820F931F409123020C
:100A3000509124024817590779F4309729F41092FD
:100A400026021092250202C01382128222503040E8
:100A50003093240220932302DF91CF91089510E078
:100A6000CCE6D0E004C0FE010E94F8032296CE3608
:080A7000D107C9F7F894FFCF8C
:100A7800636F756C64206E6F742061636365737354
:100A88002072656D6F7465207365727665722100DA
:100A98003839353031623433383739316532386670
:100AA80037346332313033356138386666666432DC
:100AB8000076312E300020002702000000000000E0
:100AC80096009C00000000002601AD02C100F00065
:040AD800D400120133
:00000001FF
