:100000000C9437000C945F000C945F000C945F001C
:100010000C945F000C945F000C945F000C945F00E4
:100020000C945F000C945F000C945F000C945F00D4
:100030000C945F000C945F000C945F000C945F00C4
:100040000C9480030C945F000C9484010C94B50113
:100050000C945F000C945F000C945F000C945F00A4
:100060000C945F000C945F008E007A0293001124C0
:100070001FBECFEFD8E0DEBFCDBF11E0A0E0B1E002
:10008000E8E4FDE002C005900D92A636B107D9F76D
:1000900012E0A6E6B1E001C01D92A033B107E1F77E
:1000A00010E0CCE6D0E004C02297FE010E944E048E
:1000B000C836D107C9F70E946E030C9497060C94BA
:1000C00000008130910559F486E691E00E94A60077
:1000D00085E791E060E071E00E9453030895009786
:1000E00041F485E791E00E94E10286E691E00E94FA
:1000F0009800089584E092E040E855E260E070E006
:100100000E94FC0186E691E00E94BF00089586E609
:1001100091E067E170E00E94C900089581E090E0FD
:100120000E946100089580E090E00E9461000895BF
:1001300021E531E0FC0131832083089521E531E0A0
:10014000FC01318320830E947D030895FC0181E539
:1001500091E091838083168281E291E09383828390
:100160001582148282E491E090878783128611863B
:100170001486138681E090E096878587089541E094
:10018000FC01228133812115310509F440E0842FDF
:10019000089580E00895FC0184859585FC01E05C6C
:1001A000FF4F208131818E5B9F4FFC0180819181C7
:1001B000281B390B2F733070C9010895FC01848509
:1001C0009585FC01E05CFF4F40815181FC01EE5BB5
:1001D000FF4F208131814217530741F00190F08198
:1001E000E02DE80FF91F208130E002C02FEF3FEF34
:1001F000C9010895FC0184859585FC01E05CFF4FF1
:1002000040815181FC01EE5BFF4F2081318142171B
:10021000530771F0A081B181A80FB91F2C91808183
:10022000918101968F7390709183808330E002C03A
:100230002FEF3FEFC9010895DC011E968D919C912F
:100240001F97FC01E05CFF4F8E5B9F4F4081518107
:10025000DC012D913C91119742175307B9F708958E
:100260001F93FC01162F26853785D901A05CBF4F4F
:100270008D919C91019660E470E00E940304D90185
:10028000AE5BBF4F4D915C91119784179507D1F3E9
:10029000D901A05CBF4F0D90BC91A02DA20FB31F40
:1002A0001C93A685B785A05CBF4F11969C938E9337
:1002B000A689B7892C9181E090E0058C02C0880F57
:1002C000991F0A94E2F7282B2C9381E090E01F916C
:1002D0000895FB01E05CFF4F208131812F5F3F4F8C
:1002E0002F733070DB01AE5BBF4F4D915C91119766
:1002F0002417350739F0A081B181A60FB71F8C9361
:1003000031832083089508951F920F920FB60F92A4
:1003100011242F933F934F935F936F937F938F930A
:100320009F93AF93BF93EF93FF938091C6006CE7C9
:1003300071E00E946901FF91EF91BF91AF919F9190
:100340008F917F916F915F914F913F912F910F907E
:100350000FBE0F901F90189584E092E00E94CB0092
:10036000009711F00E94830108951F920F920FB61B
:100370000F9211242F933F935F936F937F938F93EB
:100380009F93AF93BF93EF93FF932091000230911F
:10039000010280910202909103022817390731F47B
:1003A0008091C1008F7D8093C10016C0E091020250
:1003B000F0910302E054FE4F20818091020290915F
:1003C0000302019660E470E00E940304909303022C
:1003D000809302022093C600FF91EF91BF91AF91ED
:1003E0009F918F917F916F915F913F912F910F908E
:1003F0000FBE0F901F901895DF92EF92FF920F9310
:100400001F93CF93DF93EC017A018B01DD24D3940A
:10041000403081EE580780E0680780E0780749F4B3
:10042000DD24EC89FD89108260E874E88EE190E0BB
:100430000FC0EC89FD8981E090E00E8C02C0880F2E
:10044000991F0A94E2F7808360E079E08DE390E001
:10045000A80197010E9416042150304040405040AE
:10046000569547953795279580E12030380710F04D
:10047000DD20B1F6E889F9893083EA89FB89208398
:10048000EE89FF89408181E090E09C010A8C02C0E6
:10049000220F331F0A94E2F7422B4083EE89FF8933
:1004A00040819C010B8C02C0220F331F0A94E2F79B
:1004B000422B4083EE89FF8940819C010C8C02C055
:1004C000220F331F0A94E2F7422B4083EE89FF8903
:1004D00020810D8C02C0880F991F0A94E2F7809545
:1004E00082238083DF91CF911F910F91FF90EF9036
:1004F000DF900895109207021092060288EE93E0B2
:10050000A0E0B0E08093080290930902A0930A0251
:10051000B0930B02E6E0F2E089E591E092938293DA
:100520008CE791E09587848780EC91E097878687B8
:1005300085EC90E0918B808B84EC90E0938B828BA8
:1005400080EC90E0958B848B81EC90E0978B868B90
:1005500086EC90E0918F808F84E0828F83E0838FA0
:1005600087E0848F85E0858F81E0868F0895CF9224
:10057000DF92EF92FF920F931F93CF93DF936C0163
:100580007B018A01C0E0D0E00FC0D7016D917D01F1
:10059000D601ED91FC910190F081E02DC601099505
:1005A000C80FD91F015010400115110571F7CE0178
:1005B000DF91CF911F910F91FF90EF90DF90CF903F
:1005C0000895FC01808191810E94EC040895CF93ED
:1005D000DF93EC0188819981009711F00E94EC046F
:1005E000198218821D821C821B821A82DF91CF9190
:1005F00008950F931F93CF93DF93EC018B016F5FEF
:100600007F4F888199810E948505009731F09983F9
:1006100088831B830A8381E001C080E0DF91CF9152
:100620001F910F910895CF93DF93EC0188819981F9
:10063000009729F08A819B818617970778F4CE016D
:100640000E94F902882341F08C819D81009731F44A
:10065000E881F981108202C080E001C081E0DF9171
:10066000CF910895EF92FF920F931F93CF93DF9353
:10067000EC017B018A01BA010E941303882321F453
:10068000CE010E94E70207C01D830C8388819981F7
:10069000B7010E945906CE01DF91CF911F910F91B2
:1006A000FF90EF900895CF93DF93FC0111821082A9
:1006B000138212821582148216826115710559F017
:1006C000EB0109900020E9F7AE0141505040461B74
:1006D000570B0E943203DF91CF910895CF93DF93A0
:1006E0000E94C8030E947A00CCEAD1E00E948700F1
:1006F0002097E1F30E94AC01F9CF0E94EC04089529
:100700001F920F920FB60F9211242F933F938F9346
:100710009F93AF93BF938091270290912802A0915D
:100720002902B0912A0230912B020196A11DB11D20
:10073000232F2D5F2D3720F02D570196A11DB11DC0
:1007400020932B028093270290932802A0932902E2
:10075000B0932A028091230290912402A091250255
:10076000B09126020196A11DB11D809323029093A2
:100770002402A0932502B0932602BF91AF919F91CE
:100780008F913F912F910F900FBE0F901F90189552
:10079000789484B5826084BD84B5816084BD85B55C
:1007A000826085BD85B5816085BDEEE6F0E0808123
:1007B00081608083E1E8F0E0108280818260808344
:1007C000808181608083E0E8F0E0808181608083C7
:1007D000E1EBF0E0808184608083E0EBF0E08081F9
:1007E00081608083EAE7F0E080818460808380819B
:1007F0008260808380818160808380818068808343
:100800001092C100089597FB092E07260AD077FDA4
:1008100004D02ED006D000201AF4709561957F4F39
:100820000895F6F7909581959F4F0895A1E21A2EAD
:10083000AA1BBB1BFD010DC0AA1FBB1FEE1FFF1F84
:10084000A217B307E407F50720F0A21BB30BE40BD4
:10085000F50B661F771F881F991F1A9469F760951B
:100860007095809590959B01AC01BD01CF010895D5
:10087000AA1BBB1B51E107C0AA1FBB1FA617B707C6
:1008800010F0A61BB70B881F991F5A95A9F78095E2
:100890009095BC01CD010895EE0FFF1F0590F491D6
:1008A000E02D0994CF93DF938230910510F482E01C
:1008B00090E0E0912E02F0912F0240E050E020E025
:1008C00030E026C06081718168177907E0F0681711
:1008D000790781F4828193812115310531F0D901A5
:1008E00013969C938E9312972BC090932F02809314
:1008F0002E0226C04115510519F06417750718F42A
:10090000AB01E901DF019F0172816381E72FF62FBF
:100910003097C1F64115510501F1481B590B443080
:10092000510580F412968D919C911397209719F0A0
:100930009B838A8304C090932F0280932E02FD0133
:10094000329646C0FD01E40FF51F8193919342500A
:10095000504011965C934E933BC020912C023091F5
:100960002D022115310541F42091490130914A01B0
:1009700030932D0220932C0220914B0130914C0199
:100980002115310541F42DB73EB7409147015091F3
:100990004801241B350BE0912C02F0912D02E21747
:1009A000F307A0F42E1B3F0B2817390778F0AC0192
:1009B0004E5F5F4F2417350748F04E0F5F1F50936F
:1009C0002D0240932C028193919302C0E0E0F0E06D
:1009D000CF01DF91CF910895CF93DF93009709F472
:1009E00091C0FC0132971382128260912E027091A5
:1009F0002F026115710581F420813181280F391F83
:100A000080912C0290912D028217930799F5F09313
:100A10002D02E0932C0276C0DB0180E090E002C062
:100A2000CD01D901AE17BF0748F412962D913C9124
:100A3000139721153105A1F7CD0121C0B383A283FE
:100A4000EF01499159919E01240F351FA217B30759
:100A500079F42D913C911197240F351F2E5F3F4F54
:100A60003183208312962D913C91139733832283F7
:100A7000009729F4F0932F02E0932E0243C0DC018B
:100A80001396FC93EE9312974D915D91A40FB51FB1
:100A9000EA17FB0769F420813181240F351F2E5F8F
:100AA0003F4FEC0139832883228133813B832A83A2
:100AB000E0E0F0E002C0FB01BC01DB0112968D9189
:100AC0009C9113970097B9F79B012E5F3F4F8D9133
:100AD0009C911197820F931F40912C0250912D02EF
:100AE0004817590779F4309729F410922F02109281
:100AF0002E0202C0138212822250304030932D0207
:100B000020932C02DF91CF910895A0E0B0E0EBE8B4
:100B1000F5E00C9466068C01CB010115110529F452
:100B20000E945204082F192FB5C0D80112979801BE
:100B3000260F371F2A173B0708F4AAC0ED90FC9038
:100B40001197E616F706D0F045E0E416F10408F434
:100B5000A1C0A701445050404617570708F49AC057
:100B6000A70142505040461B570BF9014193519346
:100B70006D937C93CF010E94EC048CC05B01AE1896
:100B8000BF0848018E0C9F1CE0912E02F0912F02AD
:100B9000CC24DD24C0E0D0E041C0E815F90599F58A
:100BA00060817181AB014E5F5F4F4A155B0558F163
:100BB000AB014A195B09CC24DD246894C1F8C40E4A
:100BC000D51E8280A380E5E0CE16D10448F0F9015D
:100BD0008282A3825183408311969C938E9309C095
:100BE000C7010296860F971F11969C938E93E82D4E
:100BF000FA2D209719F0FB83EA834CC0F0932F0263
:100C0000E0932E0247C040815181C416D50608F4F6
:100C10006A01EF0152814381E52FF42F309709F0EB
:100C2000BCCF40912C0250912D0248155905E9F492
:100C3000C816D906D0F440914B0150914C01411592
:100C4000510541F44DB75EB760914701709148017D
:100C5000461B570B24173507D8F430932D022093E9
:100C60002C0211969C938E9315C00E945204C82E9C
:100C7000E6016E01D92EE601209751F08C2DB801C6
:100C8000A7010E945006C8010E94EC04860102C020
:100C900000E010E0C801CDB7DEB7ECE00C948206AE
:100CA000FB01DC0102C001900D9241505040D8F789
:100CB0000895FB01DC0101900D920020E1F70895F9
:100CC0002F923F924F925F926F927F928F929F925C
:100CD000AF92BF92CF92DF92EF92FF920F931F934A
:100CE000CF93DF93CDB7DEB7CA1BDB0B0FB6F894FB
:100CF000DEBF0FBECDBF09942A88398848885F843B
:100D00006E847D848C849B84AA84B984C884DF80AB
:100D1000EE80FD800C811B81AA81B981CE0FD11D8F
:100D20000FB6F894DEBF0FBECDBFED01089510E001
:100D3000CCE6D0E004C0FE010E944E042296CE36DE
:080D4000D107C9F7F894FFCFB9
:100D480038393530316234333837393165323866BD
:100D58003734633231303335613838666666643229
:100D68000038393530316234333837393165323803
:100D780066373463323130333561383866666664D5
:100D8800320076312E3000200030020000000000D2
:100D98000098009E00000000003001B702CB00FA66
:060DA80000DE001C01004A
:00000001FF
