:100000000C9437000C945F000C945F000C945F001C
:100010000C945F000C945F000C945F000C945F00E4
:100020000C945F000C945F000C945F000C945F00D4
:100030000C945F000C945F000C945F000C945F00C4
:100040000C9493050C945F000C944F020C94800266
:100050000C945F000C945F000C945F000C945F00A4
:100060000C945F000C945F002B01450330011124B8
:100070001FBECFEFD8E0DEBFCDBF11E0A0E0B1E002
:10008000E0EEF5E102C005900D92AC38B107D9F76A
:1000900012E0ACE8B1E001C01D92A135B107E1F773
:1000A00010E0CCE6D0E004C02297FE010E942009B7
:1000B000C836D107C9F70E947D050C94E30A0C9459
:1000C000000028E531E0FC0131832083089528E514
:1000D00031E0FC01318320830E948F050895FC01EB
:1000E00088E591E0918380838AE090E09383828326
:1000F0001582148217821682089580E00895FC010B
:100100008285938560E071E00E94DD0381E00895BF
:1001100028E631E0FC01318320830E9461000895CC
:10012000CF93DF93EC0188E691E099838883CE0139
:100130000E946100CE010E948F05DF91CF9108954A
:100140000F931F93CF93DF93EC010E946F0088E61B
:1001500091E09983888385E292E09B878A87DF918B
:10016000CF911F910F910895FC01828593856AE1DB
:1001700071E00E94BD030895EF92FF920F931F93C9
:10018000CF93DF93EC017A018B010E94B4008A8542
:100190009B85B801A70122E030E00E94540521E0D0
:1001A000009709F420E0822FDF91CF911F910F91EA
:1001B000FF90EF9008950F931F93CF93DF93EC017F
:1001C0008B010E94B4008A859B85B8014AE050E00B
:1001D0000E94940421E0009709F420E0822FDF912F
:1001E000CF911F910F9108958130910529F48CE8EA
:1001F00091E00E9443010895009721F48CE891E07A
:100200000E943501089585E292E040E855E260E001
:1002100070E00E94C7028CE891E062E070E00E940A
:100220005E0180E00E9463060E945705089560E029
:1002300071E080E090E00E945F059B01AC018CE8DA
:1002400091E0B9010E94850160E27EE480E090E0E7
:100250000E940106089581E090E00E94F400089554
:1002600080E090E00E94F400089528E731E0FC016E
:1002700031832083089528E731E0FC013183208316
:100280000E948F050895FC0188E791E091838083A7
:10029000168281E291E09383828382E090E09583ED
:1002A000848382E491E09087878312861186148686
:1002B000138681E090E09687858708950F931F93BA
:1002C000CF93DF93EC017D836C836230710559F429
:1002D0008CE090E00E948C058C0160E070E00E9450
:1002E000A0000F87188BDF91CF911F910F91089578
:1002F000DC011F968D919C915097DC01ED91FC9152
:100300000084F185E02D09950895CF93DF93EC01EA
:10031000882777FD8095982F0E948807AB01BC0144
:10032000CE010E947801DF91CF910895FC01848570
:100330009585FC01E05CFF4F208131818E5B9F4FF2
:10034000FC0180819181281B390B2F733070C9010A
:100350000895FC0184859585FC01E05CFF4F408198
:100360005181FC01EE5BFF4F208131814217530721
:1003700041F00190F081E02DE80FF91F208130E07D
:1003800002C02FEF3FEFC9010895FC0184859585D8
:10039000FC01E05CFF4F40815181FC01EE5BFF4FAF
:1003A000208131814217530771F0A081B181A80FDC
:1003B000B91F2C918081918101968F7390709183E8
:1003C000808330E002C02FEF3FEFC9010895DC01C8
:1003D0001E968D919C911F97FC01E05CFF4F8E5BF8
:1003E0009F4F40815181DC012D913C911197421723
:1003F0005307B9F708951F93FC01162F26853785FB
:10040000D901A05CBF4F8D919C91019660E470E092
:100410000E94BA08D901AE5BBF4F4D915C91119714
:1004200084179507D1F3D901A05CBF4F0D90BC9103
:10043000A02DA20FB31F1C93A685B785A05CBF4F4C
:1004400011969C938E93A689B7892C9181E090E0B8
:10045000058C02C0880F991F0A94E2F7282B2C9371
:1004600081E090E01F910895FB01E05CFF4F208147
:1004700031812F5F3F4F2F733070DB01AE5BBF4F79
:100480004D915C9111972417350739F0A081B18106
:10049000A60FB71F8C9331832083089508951F9270
:1004A0000F920FB60F9211242F933F934F935F93A8
:1004B0006F937F938F939F93AF93BF93EF93FF932C
:1004C0008091C6006DE971E00E943402FF91EF91C6
:1004D000BF91AF919F918F917F916F915F914F915C
:1004E0003F912F910F900FBE0F901F90189585E2AE
:1004F00092E00E949601009711F00E944E0208952A
:100500001F920F920FB60F9211242F933F935F9378
:100510006F937F938F939F93AF93BF93EF93FF93CB
:100520002091210230912202809123029091240295
:100530002817390731F48091C1008F7D8093C10065
:1005400016C0E0912302F0912402EF51FE4F20816A
:100550008091230290912402019660E470E00E9451
:10056000BA0890932402809323022093C600FF913F
:10057000EF91BF91AF919F918F917F916F915F911B
:100580003F912F910F900FBE0F901F901895DF9203
:10059000EF92FF920F931F93CF93DF93EC017A01B9
:1005A0008B01DD24D394403081EE580780E068074A
:1005B00080E0780749F4DD24EC89FD89108260E849
:1005C00074E88EE190E00FC0EC89FD8981E090E055
:1005D0000E8C02C0880F991F0A94E2F7808360E0B6
:1005E00079E08DE390E0A80197010E94CD082150A9
:1005F000304040405040569547953795279580E1CB
:100600002030380710F0DD20B1F6E889F989308311
:10061000EA89FB892083EE89FF89408181E090E0AF
:100620009C010A8C02C0220F331F0A94E2F7422B6E
:100630004083EE89FF8940819C010B8C02C0220F10
:10064000331F0A94E2F7422B4083EE89FF894081F1
:100650009C010C8C02C0220F331F0A94E2F7422B3C
:100660004083EE89FF8920810D8C02C0880F991F7D
:100670000A94E2F7809582238083DF91CF911F91C6
:100680000F91FF90EF90DF90089510922802109242
:10069000270288EE93E0A0E0B0E0809329029093D7
:1006A0002A02A0932B02B0932C02E7E2F2E080E84A
:1006B00091E0929382938DE991E09587848781EE12
:1006C00091E09787868785EC90E0918B808B84EC16
:1006D00090E0938B828B80EC90E0958B848B81EC07
:1006E00090E0978B868B86EC90E0918F808F84E0F2
:1006F000828F83E0838F87E0848F85E0858F81E020
:10070000868F0895CF92DF92EF92FF920F931F93FF
:10071000CF93DF936C017B018A01C0E0D0E00FC072
:10072000D7016D917D01D601ED91FC910190F08191
:10073000E02DC6010995C80FD91F015010400115C1
:10074000110571F7CE01DF91CF911F910F91FF90AD
:10075000EF90DF90CF900895DB010D900020E9F736
:10076000AD0141505040461B570BDC01ED91FC910F
:100770000280F381E02D099508950E94AC0308954D
:10078000DC01ED91FC910190F081E02D0995089537
:100790000F931F93CF93DF93EC016DE00E94C00392
:1007A0008C01CE016AE00E94C003080F191FC80126
:1007B000DF91CF911F910F9108950F931F93CF93C6
:1007C000DF93EC010E94AC038C01CE010E94C803B0
:1007D000080F191FC801DF91CF911F910F91089544
:1007E0008F929F92AF92BF92CF92DF92EF92FF9241
:1007F0000F931F93DF93CF93CDB7DEB7A1970FB6BB
:10080000F894DEBF0FBECDBF6C01042FE52FCB01E6
:10081000122F19A2223008F41AE021E2E22EF12C64
:10082000EC0EFD1E812E9924AA24BB2403C0022FA6
:10083000E32FCA01602F7E2FA50194010E94CD08ED
:10084000129F802D1124081B0894E108F1080A303A
:1008500014F4005D01C0095CF70100832115310526
:100860004105510521F7C601B7010E94AC03A196CD
:100870000FB6F894DEBF0FBECDBFCF91DF911F91B1
:100880000F91FF90EF90DF90CF90BF90AF909F902F
:100890008F9008952115310549F4DC01ED91FC910B
:1008A0000190F081E02D642F099508950E94F003D6
:1008B0000895CF92DF92EF92FF920F931F93CF9301
:1008C000DF93EC017A018B012115310541F4E881B8
:1008D000F9810190F081E02D642F09951AC02A302A
:1008E0003105A9F477FF12C06DE20E94C0036C01CC
:1008F00044275527BA014E195F09600B710BCE01D1
:100900002AE00E94F003C80ED91E04C02AE00E940B
:10091000F0036C01C601DF91CF911F910F91FF9001
:10092000EF90DF90CF9008959A01FB01AF01662709
:1009300057FD6095762F0E94590408956F927F921B
:100940009F92AF92BF92CF92DF92EF92FF920F935E
:100950001F93CF93DF933C017A018B01C22ECB0111
:10096000BA0120E030E0A9010E94E90687FF0AC031
:10097000C3016DE20E94C003EC0117FB109517F94B
:10098000109502C0C0E0D0E0DD2450E040E030E04F
:100990002FE311C0DA01F9016B2F742F8F2F922FE3
:1009A00020E030E040E251E40E94ED06562F472F50
:1009B000382F292FD394DC1468F3C801B701DA016A
:1009C000F9012B2F342F4F2F5E2F0E9485065B01DC
:1009D000F82E992E7B2D0E945A07162FD72EE82E1F
:1009E000092F0E9486079B01AC016A2D7B2D8F2D5C
:1009F000992D0E948406962EA72EB82EF92EC3019B
:100A0000412F5D2D6E2D702F2AE030E00E944A04A8
:100A1000C80FD91FCC20B9F1C30167E471E00E946F
:100A2000AC03C80FD91F2FC0692D7A2D8B2D9F2D98
:100A300020E030E040E251E40E943808D62EB72E84
:100A4000A82E992E0E9455077B010027F7FC0095E0
:100A5000102FC301B801A7012AE030E00E94590419
:100A6000C80FD91FC801B7010E9488079B01AC01BC
:100A70006D2D7B2D8A2D992D0E948406962EA72EF2
:100A8000B82EF92ECA94CC2079F6CE01DF91CF9101
:100A90001F910F91FF90EF90DF90CF90BF90AF909C
:100AA0009F907F906F9008950E949E0408950097F4
:100AB00029F0BC0180E090E00E94A30A0895EF9223
:100AC000FF920F931F937B018C01611571058105C6
:100AD000910549F00E949E0AA80197010E94EF0823
:100AE0009B01AC0103C020E030E0A901B901CA01BB
:100AF0001F910F91FF90EF900895CF93DF930E9485
:100B000028060E940301C7E7D2E00E941701209740
:100B1000E1F30E947702F9CF0E94240908950E9410
:100B2000BE09089508951F920F920FB60F921124D7
:100B30002F933F938F939F93AF93BF9380914802DE
:100B400090914902A0914A02B0914B0230914C021F
:100B50000196A11DB11D232F2D5F2D3720F02D579C
:100B60000196A11DB11D20934C02809348029093E1
:100B70004902A0934A02B0934B02809144029091A3
:100B80004502A0914602B09147020196A11DB11DF8
:100B90008093440290934502A0934602B09347028B
:100BA000BF91AF919F918F913F912F910F900FBE69
:100BB0000F901F9018959FB7F894209144023091A0
:100BC0004502409146025091470286B5A89B06C057
:100BD0008F3F21F02F5F3F4F4F4F5F4F9FBF542FED
:100BE000432F322F2227280F311D411D511D82E036
:100BF000220F331F441F551F8A95D1F7B901CA012F
:100C00000895EF92FF920F931F93CF93DF937B0191
:100C10008C010E94DB05EB010FC00E94DB056C1B01
:100C20007D0B83E0683E780738F00894E108F1080E
:100C300001091109C851DC4FE114F1040105110546
:100C400061F7DF91CF911F910F91FF90EF90089581
:100C5000789484B5826084BD84B5816084BD85B597
:100C6000826085BD85B5816085BDEEE6F0E080815E
:100C700081608083E1E8F0E010828081826080837F
:100C8000808181608083E0E8F0E080818160808302
:100C9000E1EBF0E0808184608083E0EBF0E0808134
:100CA00081608083EAE7F0E08081846080838081D6
:100CB000826080838081816080838081806880837E
:100CC0001092C10008958E3008F08E508770909178
:100CD00053019295990F990F907C982B90937C00DB
:100CE00080917A00806480937A0080917A0086FDFA
:100CF000FCCF2091780030917900932F80E030E094
:100D0000282B392BC90108955058BB27AA270ED08C
:100D100075C166D130F06BD120F031F49F3F11F4F2
:100D20001EF45BC10EF4E095E7FB51C1E92F77D1CA
:100D300080F3BA17620773078407950718F071F4F8
:100D40009EF58FC10EF4E0950B2EBA2FA02D0B014E
:100D5000B90190010C01CA01A0011124FF27591B00
:100D600099F0593F50F4503E68F11A16F040A22F06
:100D7000232F342F4427585FF3CF46953795279577
:100D8000A795F0405395C9F77EF41F16BA0B620B76
:100D9000730B840BBAF09150A1F0FF0FBB1F661FBD
:100DA000771F881FC2F70EC0BA0F621F731F841F00
:100DB00048F4879577956795B795F7959E3F08F026
:100DC000B3CF9395880F08F09927EE0F97958795E5
:100DD0000895D9D008F481E008950CD00FC107D14F
:100DE00040F0FED030F021F45F3F19F0F0C0511117
:100DF00039C1F3C014D198F39923C9F35523B1F342
:100E0000951B550BBB27AA2762177307840738F079
:100E10009F5F5F4F220F331F441FAA1FA9F333D0D8
:100E20000E2E3AF0E0E830D091505040E695001C8C
:100E3000CAF729D0FE2F27D0660F771F881FBB1F48
:100E4000261737074807AB07B0E809F0BB0B802D22
:100E5000BF01FF2793585F4F2AF09E3F510568F06E
:100E6000B6C000C15F3FECF3983EDCF38695779502
:100E70006795B795F7959F5FC9F7880F911D969570
:100E8000879597F90895E1E0660F771F881FBB1FCC
:100E9000621773078407BA0720F0621B730B840B79
:100EA000BA0BEE1F88F7E095089504D06894B1114D
:100EB000D9C00895BCD088F09F5790F0B92F9927DA
:100EC000B751A0F0D1F0660F771F881F991F1AF055
:100ED000BA95C9F712C0B13081F0C3D0B1E008951E
:100EE000C0C0672F782F8827B85F39F0B93FCCF39F
:100EF000869577956795B395D9F73EF4909580954B
:100F0000709561957F4F8F4F9F4F0895E89409C06A
:100F100097FB3EF490958095709561957F4F8F4F2C
:100F20009F4F9923A9F0F92F96E9BB279395F69542
:100F3000879577956795B795F111F8CFFAF4BB0FC0
:100F400011F460FF1BC06F5F7F4F8F4F9F4F16C024
:100F5000882311F096E911C0772321F09EE8872FAE
:100F6000762F05C0662371F096E8862F70E060E06A
:100F70002AF09A95660F771F881FDAF7880F9695E3
:100F8000879597F90895990F0008550FAA0BE0E887
:100F9000FEEF16161706E807F907C0F0121613063B
:100FA000E407F50798F0621B730B840B950B39F47B
:100FB0000A2661F0232B242B252B21F408950A26E1
:100FC00009F4A140A6958FEF811D811D089597F921
:100FD0009F6780E870E060E008959FEF80EC0895DF
:100FE00000240A9416161706180609060895002408
:100FF0000A9412161306140605060895092E039482
:10100000000C11F4882352F0BB0F40F4BF2B11F4F5
:1010100060FF04C06F5F7F4F8F4F9F4F089557FD54
:101020009058440F551F59F05F3F71F04795880F56
:1010300097FB991F61F09F3F79F0879508951216ED
:1010400013061406551FF2CF4695F1DF08C0161699
:1010500017061806991FF1CF86957105610508944A
:101060000895E894BB2766277727CB0197F9089561
:101070000BD0C4CFB5DF28F0BADF18F0952309F004
:10108000A6CFABCF1124EECFCADFA0F3959FD1F34B
:10109000950F50E0551F629FF001729FBB27F00D26
:1010A000B11D639FAA27F00DB11DAA1F649F66277B
:1010B000B00DA11D661F829F2227B00DA11D621FCA
:1010C000739FB00DA11D621F839FA00D611D221F84
:1010D000749F3327A00D611D231F849F600D211D68
:1010E000822F762F6A2F11249F5750408AF0E1F00B
:1010F00088234AF0EE0FFF1FBB1F661F771F881F54
:1011000091505040A9F79E3F510570F060CFAACF93
:101110005F3FECF3983EDCF3869577956795B7953E
:10112000F795E7959F5FC1F7FE2B880F911D969568
:10113000879597F90895629FD001739FF001829F70
:10114000E00DF11D649FE00DF11D929FF00D839F56
:10115000F00D749FF00D659FF00D9927729FB00DF3
:10116000E11DF91F639FB00DE11DF91FBD01CF0106
:101170001124089597FB092E07260AD077FD04D085
:1011800049D006D000201AF4709561957F4F0895DC
:10119000F6F7909581959F4F0895A1E21A2EAA1B0C
:1011A000BB1BFD010DC0AA1FBB1FEE1FFF1FA21717
:1011B000B307E407F50720F0A21BB30BE40BF50B14
:1011C000661F771F881F991F1A9469F7609570959D
:1011D000809590959B01AC01BD01CF01089597FBCF
:1011E000092E05260ED057FD04D0D7DF0AD0001CEB
:1011F00038F450954095309521953F4F4F4F5F4FB4
:101200000895F6F790958095709561957F4F8F4F73
:101210009F4F0895AA1BBB1B51E107C0AA1FBB1F0C
:10122000A617B70710F0A61BB70B881F991F5A9572
:10123000A9F780959095BC01CD010895EE0FFF1F91
:101240000590F491E02D0994CF93DF9382309105BE
:1012500010F482E090E0E0914F02F091500240E003
:1012600050E020E030E026C0608171816817790786
:10127000E0F06817790781F48281938121153105A7
:1012800031F0D90113969C938E9312972BC09093B3
:10129000500280934F0226C04115510519F0641782
:1012A000750718F4AB01E901DF019F0172816381C9
:1012B000E72FF62F3097C1F64115510501F1481B74
:1012C000590B4430510580F412968D919C911397DF
:1012D000209719F09B838A8304C0909350028093D7
:1012E0004F02FD01329646C0FD01E40FF51F8193C8
:1012F00091934250504011965C934E933BC0209185
:101300004D0230914E022115310541F420914B01DF
:1013100030914C0130934E0220934D0220914D01AB
:1013200030914E012115310541F42DB73EB7409162
:10133000490150914A01241B350BE0914D02F09177
:101340004E02E217F307A0F42E1B3F0B28173907B4
:1013500078F0AC014E5F5F4F2417350748F04E0F11
:101360005F1F50934E0240934D028193919302C0B0
:10137000E0E0F0E0CF01DF91CF910895CF93DF93CC
:10138000009709F491C0FC01329713821282609198
:101390004F02709150026115710581F420813181F5
:1013A000280F391F80914D0290914E0282179307AA
:1013B00099F5F0934E02E0934D0276C0DB0180E098
:1013C00090E002C0CD01D901AE17BF0748F41296D4
:1013D0002D913C91139721153105A1F7CD0121C025
:1013E000B383A283EF01499159919E01240F351FC8
:1013F000A217B30779F42D913C911197240F351F53
:101400002E5F3F4F3183208312962D913C9113978D
:1014100033832283009729F4F0935002E0934F0224
:1014200043C0DC011396FC93EE9312974D915D91AE
:10143000A40FB51FEA17FB0769F420813181240F3F
:10144000351F2E5F3F4FEC01398328832281338182
:101450003B832A83E0E0F0E002C0FB01BC01DB013A
:1014600012968D919C9113970097B9F79B012E5F6F
:101470003F4F8D919C911197820F931F40914D0288
:1014800050914E024817590779F4309729F4109279
:10149000500210924F0202C013821282225030403A
:1014A00030934E0220934D02DF91CF910895A0E03A
:1014B000B0E0EDE5FAE00C94B40AEC0168817981C2
:1014C0008A819B81611571058105910521F464E292
:1014D00079ED8BE597E02DE133EF41E050E00E949C
:1014E000EF0879018A0127EA31E440E050E00E94E8
:1014F0009B085B016C01C801B7012CEE34EF4FEF84
:101500005FEF0E949B089B01AC012A0D3B1D4C1D07
:101510005D1D57FF04C02150304040405048288393
:1015200039834A835B835F77B901CA01CDB7DEB7E0
:10153000EAE00C94D00A0E94570A08958FE491E0E3
:101540000E94570A089560934F0170935001809351
:1015500051019093520108952F923F924F925F92C2
:101560006F927F928F929F92AF92BF92CF92DF92B3
:10157000EF92FF920F931F93CF93DF93CDB7DEB718
:10158000CA1BDB0B0FB6F894DEBF0FBECDBF0994AC
:101590002A88398848885F846E847D848C849B8403
:1015A000AA84B984C884DF80EE80FD800C811B8111
:1015B000AA81B981CE0FD11D0FB6F894DEBF0FBE40
:1015C000CDBFED01089510E0CCE6D0E004C0FE01EF
:1015D0000E9420092296CE36D107C9F7F894FFCF92
:1015E00073657269616C20706F7274206973206317
:1015F0006F6E6E656374696E670076616C75653ACF
:101600000038393530316234333837393165323862
:101610006637346332313033356138386666666434
:10162000320076312E30002E0020005102000001E1
:1016300000000001000000006100670092059205B3
:101640009205920500000000880090007F00DB00FA
:10165000BC007D000000000035013B0100000000DF
:0C166000FB0182039601C501A901E7010E
:00000001FF
